:020000040800F2
:1000000000330020450100080D2800080F280008D3
:1000100013280008172800081B280008000000000B
:100020000000000000000000000000001F28000881
:1000300021280008000000002328000825280008C7
:100040005F0100085F0100085F0100085F01000810
:100050005F0100085F0100085F0100085F01000800
:100060005F0100085F0100085F0100085F010008F0
:100070005F0100085F0100085F0100085F010008E0
:100080005F0100085F0100085F0100085F010008D0
:100090005F0100085F0100085F0100085F010008C0
:1000A0005F0100085F0100085F0100085F010008B0
:1000B0005F0100085F0100085F0100085F010008A0
:1000C0005F0100085F0100085F0100085F01000890
:1000D0005F0100085F0100088F2B00085F01000826
:1000E0005F0100085F0100085F0100085F01000870
:1000F0005F0100085F0100085F0100085F01000860
:100100005F0100085F0100085F0100085F0100084F
:10011000392D00085F01000827280008232B00085C
:100120005F0100085F0100085F0100085F0100082F
:10013000DFF80CD005F0E6FE00480047FD2200087D
:10014000003300200648804706480047FEE7FEE7E8
:10015000FEE7FEE7FEE7FEE7FEE7FEE7FEE7FEE777
:1001600045020008310100080CB500200190009004
:100170006B48006840F480306949086000BF6848F7
:10018000006800F4003000900198401C0190009835
:1001900018B90198B0F5A06FF1D16148006810F46A
:1001A000003F02D00120009001E000200090009864
:1001B000012842D15B48006840F0100059490860AE
:1001C0000846006820F0030008600846006840F018
:1001D000020008605248406851494860084640683B
:1001E00048600846406840F48060486008464068BF
:1001F00020F47C1048600846406840F4E8104860ED
:100200000846006840F08070086000BF44480068FD
:1002100010F0007FFAD04248406820F003004049C7
:1002200048600846406840F00200486000BF3C4813
:10023000406800F00C000828F9D10CBD10B5FFF79C
:1002400093FF10BD10B53648006840F001003449F6
:10025000086008464068344908403149486008460B
:100260000068324908402E4908600846006820F4BA
:10027000802008600846406820F4FE0048604FF483
:100280001F008860FFF7DAFF4FF000602849086020
:1002900010BD10B5002100200022214B5B6803F047
:1002A0000C0121B1042906D0082928D107E0214BEF
:1002B000214C236027E01F4B1F4C236023E0184B89
:1002C0005B6803F47010164B5B6803F48032022302
:1002D00003EB904022B9194B4343174C23600DE0C8
:1002E0000F4B5B6813F4003F04D0144B4343124C94
:1002F000236003E00F4B43430F4C236003E00D4B9F
:100300000D4C236000BF00BF054B5B68C3F30313B4
:100310000B4CE15C084B1B68CB40074C236010BDC5
:1003200000100240002002400000FFF8FFFFF6FE30
:1003300008ED00E000127A000000002000093D00F6
:100340000400002031490143314A1160704770B503
:10035000002100230F22C4780CB32D4C246804F430
:10036000E064C4F5E064210AC1F10403CA404478A2
:1003700004FA03F18478144021430901254C0678DE
:10038000A155047804F01F050124AC4005786D11D7
:100390004FF0E02606EB8505C5F8004109E004783A
:1003A00004F01F050124AC401B4D0678761145F87A
:1003B000264070BD194A0A400243154B1B1F1A60A4
:1003C000704739B1124A121D12680243104B1B1DAF
:1003D0001A6006E00E4A121D126882430C4B1B1D68
:1003E0001A607047042808D14FF0E021096941F0F4
:1003F00004014FF0E022116107E04FF0E0210969AC
:1004000021F004014FF0E022116170470000FA056D
:100410000CED00E000E400E080E100E080FFFF1F61
:1004200001460020FE4A106800F0380008431060C2
:100430007047FB49096821F00801F94A116011462B
:100440000968014311607047F549096821F01001FE
:10045000F34A116011460968014311607047F14881
:10046000EF494860F04848607047EE48EC49486002
:10047000ED4848607047EA48006940F08000E8496C
:1004800008617047E648006940F08000E44908616F
:1004900070470420E249C96811F0010F01D0012022
:1004A0000EE0DF49C96811F0040F01D0022007E017
:1004B000DB49C96811F0100F01D0032000E00420CF
:1004C000704700B502460423FFF7E3FF034603E04D
:1004D000FFF7DFFF0346521E012B01D1002AF7D19F
:1004E00002B90523184600BD30B5044604254FF473
:1004F0003020FFF7E6FF0546042D17D1C8480069F4
:1005000040F00200C649086108464461006940F0B5
:10051000400008614FF43020FFF7D3FF0546C04884
:10052000006941F6FD710840BD490861284630BDAB
:1005300010B504244FF43020FFF7C3FF0446042C09
:1005400016D1B748006940F00400B5490861084673
:10055000006940F0400008614FF43020FFF7B1FF20
:100560000446AF48006941F6FB710840AC49086198
:10057000204610BD00B502460423FFF78AFF03465C
:1005800003E0FFF786FF0346521E012B01D1002A2C
:10059000F7D102B90523184600BD10B504244FF465
:1005A0003020FFF7E7FF0446042C16D19C48006971
:1005B00040F004009A4908610846006940F0400094
:1005C00008614FF43020FFF7D5FF044694480069D6
:1005D00041F6FB71084092490861204610BD002099
:1005E0008F49C96911F0020F01D0012000E00020FD
:1005F000704730B5A5250424FFF7F1FF00B10025B1
:100600004FF43020FFF75DFF0446042C3AD18548B3
:1006100083498860844888600846006940F020006B
:1006200008610846006940F0400008614FF430203E
:10063000FFF747FF0446042C1BD17948006941F6B7
:10064000DF710840764908610846006940F01000F3
:10065000086176480580E002FFF733FF0446052C69
:1006600010D06F48006941F6EF7108406C4908618D
:1006700008E0052C06D06A48006941F6EF71084091
:1006800067490861204630BD78B506460C4604250A
:1006900000200090E802FFF714FF0546042D24D146
:1006A0005F48006940F001005D4908613480E8025C
:1006B000FFF707FF0546042D10D1B01C0090200C59
:1006C00000990880E802FFF7FCFE054654480069DF
:1006D00041F6FE7108405249086106E05048006941
:1006E00041F6FE7108404E490861284678BD70B554
:1006F00004460D460426F002FFF7E3FE0646042EEC
:1007000011D14748006940F0010045490861258042
:10071000F002FFF7D6FE06464148006941F6FE7139
:1007200008403F490861304670BD70B505460E4629
:100730000424E002FFF7C5FE0446042C17D1394813
:1007400037498860384888600846006940F01000E2
:1007500008612E80E002FFF7B4FE0446052C06D0A7
:100760002F48006941F6EF7108402D490861204685
:1007700070BD2DE9F04304464FF6FF763746B0468C
:10078000B1460425E443E6B2C4F30727C4F307489F
:100790004FEA1469E802FFF794FE0546042D49D19B
:1007A00020481F498860204888600846006940F05A
:1007B00010000861FF2E06D01C4808300680E802B1
:1007C000FFF77FFE0546042D08D1FF2F06D01748FE
:1007D0000A300780E802FFF774FE0546042D0AD1AF
:1007E000B8F1FF0F07D011480C30A0F80080E802E4
:1007F000FFF767FE0546042D0AD1B9F1FF0F07D0B8
:100800000A480E30A0F80090E802FFF75AFE0546AD
:10081000052D0FD00248006941F6EF71084007E04E
:100820000020024023016745AB89EFCD00F8FF1F90
:10083000664908612846BDE8F08330B505460424C2
:100840004FF43020FFF73DFE0446042C41D16048B0
:100850005E4988605F4888600846006940F0200073
:1008600008610846006940F0400008614FF43020FC
:10087000FFF727FE0446042C22D15448006941F6B4
:10088000DF710840514908610846006940F01000D6
:1008900008611DB100205049088002E0A5204E49A2
:1008A00008804FF43020FFF70CFE0446052C10D0D2
:1008B0004648006941F6EF7108404449086108E084
:1008C000052C06D04148006941F6DF7108403F49D8
:1008D0000861204630BDF0B505460E461746042493
:1008E0003B483A4988603B488860E002FFF7E9FDF1
:1008F0000446042C19D13548006940F010003349F2
:10090000086147F0F800304328433349891C0880C8
:10091000E002FFF7D6FD0446052C06D02B480069FF
:1009200041F6EF710840294908612046F0BD27488B
:10093000C069800870472548006A70470020234935
:10094000096811F0200F01D0012000E0002070475D
:1009500029B11E4A126902431C4B1A6104E01B4A6A
:1009600012698243194B1A61704701460020012920
:1009700008D1164AD26912F0010F01D0012008E017
:10098000002006E0114AD2680A4201D0012000E0AE
:10099000002070470D49C860704704200B49C968A2
:1009A00011F0010F01D001200EE00849C96811F0D3
:1009B000040F01D0022007E00449C96811F0100FAC
:1009C00001D0032000E00420704700000020024016
:1009D00023016745AB89EFCD00F8FF1F10B5044632
:1009E000CA48844208D10121042000F027FB0021DD
:1009F000042000F023FB46E0C548844208D10121D1
:100A0000082000F01BFB0021082000F017FB3AE053
:100A1000C048844208D10121102000F00FFB0021C2
:100A2000102000F00BFB2EE0BB48844208D10121CE
:100A3000202000F003FB0021202000F0FFFA22E03C
:100A4000B648844208D10121402000F0F7FA002185
:100A5000402000F0F3FA16E0B148844208D10121A9
:100A6000802000F0EBFA0021802000F0E7FA0AE095
:100A7000AC48844207D10121801500F0DFFA002143
:100A8000A01500F0DBFA10BD10B50121084600F0FA
:100A9000D5FA0021012000F0D1FA10BD2DE9F04176
:100AA000024600250026002000230024002791F89C
:100AB00003C00CF00F0591F803C01CF0100F03D019
:100AC00091F802C04CEA050591F800C0BCF1000F96
:100AD00031D0146800202BE04FF0010C0CFA00F329
:100AE000B1F800C00CEA03069E4220D183004FF00B
:100AF0000F0C0CFA03F7BC4305FA03FC4CEA0404A0
:100B000091F803C0BCF1280F06D14FF0010C0CFA8C
:100B100000FCC2F814C00AE091F803C0BCF1480F11
:100B200005D14FF0010C0CFA00FCC2F810C0401CBB
:100B30000828D1D31460B1F800C0BCF1FF0F34DD38
:100B4000546800202EE000F1080C4FF0010808FA6C
:100B50000CF3B1F800C00CEA03069E4221D18300D9
:100B60004FF00F0C0CFA03F7BC4305FA03FC4CEAF8
:100B7000040491F803C0BCF1280F05D100F1080C62
:100B800008FA0CF8C2F8148091F803C0BCF1480FC1
:100B900007D100F1080C4FF0010808FA0CF8C2F870
:100BA0001080401C0828CED35460BDE8F0814FF679
:100BB000FF710180022181700421C17070470246DB
:100BC000002093680B4201D0012000E00020704714
:100BD0000146886880B2704702460020D3680B4205
:100BE00001D0012000E0002070470146C86880B2B3
:100BF000704701617047416170470AB1016100E0CF
:100C000041617047C16070474FF480320A4382618E
:100C10008161826182698269704702460020424B8D
:100C200018684FF68073184040EA021008433E4BA4
:100C3000186070473D49C8617047F0B50A46002307
:100C400000240021002500F00046B6F1004F02D13B
:100C5000354EF16901E0344E7168C0F3034583B24B
:100C600000F44016B6F5401F08D121F070612E4EF9
:100C7000766826F070662C4F7E6012E000F48016D5
:100C8000B6F5801F06D1032606FA05F4A14341F00C
:100C9000706106E0460D360103FA06F6B14341F0F5
:100CA000706122B1460D360103FA06F6314300F0B9
:100CB0000046B6F1004F02D11B4EF16101E01A4E21
:100CC0007160F0BD30B500228B071C0F0F2303FAB3
:100CD00004F2154B08338C1053F824309343124C14
:100CE00008348D1044F8253023468C1053F82430F6
:100CF0008C07240F00FA04F423430B4C08348D10A6
:100D000044F8253030BD0A490860704700080140AA
:100D1000000C014000100140001401400018014087
:100D2000001C014000200140000001400000204262
:100D3000DC002042DD48006840F00100DB4908602B
:100D400008464068DA490840D849486008460068C3
:100D5000D8490840D54908600846006820F480203A
:100D600008600846406820F4FE0048604FF41F0009
:100D700088607047CD49096821F48031CB4A116001
:100D80001146096821F480211160B0F5803F03D03D
:100D9000B0F5802F0ED106E0C449096841F48031D6
:100DA000C24A116007E0C149096841F4A021BF4A65
:100DB000116000E000BF00BF704710B5014600227F
:100DC000002300204A11012A02D1B84C236806E012
:100DD000022A02D1B54C236A01E0B44C636A01F0E7
:100DE0001F02012494401C4201D0012000E0002099
:100DF00010BD38B5002000900024002500BF312030
:100E0000FFF7DBFF05460098401C00900098B0F506
:100E1000A06F01D0002DF2D03120FFF7CEFF08B136
:100E2000012400E00024204638BD014600209F4AEE
:100E3000106820F0F80040EAC100106070479E4939
:100E40000860704702460020984B586820F47C10D8
:100E500042EA01031843954B58607047964908666B
:100E6000704701460020914A506820F00300084373
:100E7000506070478D48406800F00C007047014694
:100E800000208A4A506820F0F00008435060704704
:100E900001460020854A506820F4E0600843506015
:100EA000704701460020814A506820F4605040EAB3
:100EB000C1005060704729B17C4A527A02437B4B93
:100EC0005A7204E0794A527A8243784B5A727047D8
:100ED0007A490860704701460020744A506820F43F
:100EE00040400843506070470021754A11706F4AB6
:100EF00082F82010012802D0042808D103E0012143
:100F00006F4A117004E005216D4A117000E000BFC6
:100F100000BF70476B49086070476449096A014324
:100F2000624A11627047674944390860704730B5BA
:100F300000210022002400235C4D6D6805F00C01A7
:100F400021B1042905D0082923D105E05E4D0560B3
:100F500022E05D4D05601FE0544D6D6805F4701290
:100F6000524D6D6805F48034022505EB92421CB9A0
:100F7000564D554305600BE04C4D6D6815F4003F30
:100F800003D0524D5543056002E04F4D5543056077
:100F900002E04D4D056000BF00BF444D6D6805F097
:100FA000F00109094A4D6B5C0568DD4045603F4D25
:100FB0006D6805F4E061090A454D6B5C4568DD40EC
:100FC00085603A4D6D6805F46051C90A404D6B5C0F
:100FD0004568DD40C560354D6D6805F44041890BBD
:100FE0003C4D6B5CC568B5FBF3F5056130BD29B1BF
:100FF0002E4A526902432D4B5A6104E02B4A526932
:1010000082432A4B5A61704729B1284A92690243A8
:10101000264B9A6104E0254A92698243234B9A61E8
:10102000704729B1214AD2690243204BDA6104E0BA
:101030001E4AD26982431D4BDA61704729B11B4AAF
:10104000D2680243194BDA6004E0184AD26882433E
:10105000164BDA60704729B1144A12690243134BE8
:101060001A6104E0114A12698243104B1A617047F9
:1010700014494039086070470F49C86470470B49EC
:10108000C87170470948406A40F08070074948625B
:10109000704701460020054A92680A4201D00120AB
:1010A00000E000207047014988727047001002403C
:1010B0000000FFF8FFFFF6FE00004242D800424267
:1010C000201002408004424200127A0000093D00D4
:1010D000140000202400002010B50446FE4884427D
:1010E00008D10121C014FFF7A9FF0021E014FFF788
:1010F000A5FFC4E0B4F1804F08D101210846FFF7F5
:10110000AAFF00210120FFF7A6FFB8E0F3488442C0
:1011100008D101210220FFF79EFF00210220FFF7E6
:101120009AFFACE0EE48844208D101210420FFF789
:1011300092FF00210420FFF78EFFA0E0E9488442DF
:1011400008D101210820FFF786FF00210820FFF7C2
:1011500082FF94E0E448844208D101211020FFF787
:101160007AFF00211020FFF776FF88E0DF488442F5
:1011700008D101212020FFF76EFF00212020FFF77A
:101180006AFF7CE0DA48844208D101214014FFF76D
:1011900055FF00216014FFF751FF70E0D5488442ED
:1011A00009D10121C804FFF749FF00214FF40020B5
:1011B000FFF744FF63E0D048844209D101210805CC
:1011C000FFF73CFF00214FF48010FFF737FF56E098
:1011D000CA48844209D101214805FFF72FFF0021A9
:1011E0004FF40010FFF72AFF49E0C548844208D1B8
:1011F00001214020FFF72FFF00214020FFF72BFFA8
:101200003DE0C048844208D101218020FFF723FF40
:1012100000218020FFF71FFF31E0BB48844208D146
:1012200001218015FFF717FF0021A015FFF713FF1D
:1012300025E0B648844209D101210804FFF7FEFEEB
:1012400000214FF48030FFF7F9FE18E0B0488442E7
:1012500009D101214804FFF7F1FE00214FF40030CD
:10126000FFF7ECFE0BE0AB48844208D10121880473
:10127000FFF7E4FE00214FF48020FFF7DFFE10BDF2
:1012800000220288944B98420ED0994B98420BD082
:10129000B0F1804F08D0914B984205D0904B9842C6
:1012A00002D0904B984204D14FF68F731A404B886E
:1012B0001A438D4B984207D08C4B984204D04FF67E
:1012C000FF431A40CB881A4302808B8883850B88A2
:1012D0000385814B98420BD0854B984208D08B4BAD
:1012E000984205D08A4B984202D08A4B984201D14D
:1012F0000B7A038601238382704770B50024002295
:101300000023058C4FF6FE7635400584028C8388D9
:10131000048B4FF68F752C40B51E2C400D882C4346
:10132000751E2A400D892A434D882A436A4DA842DA
:101330000BD06F4DA84208D0744DA84205D0744D13
:10134000A84202D0734DA84213D14FF6F7752A4038
:101350004D892A434FF6FB752A408D882A434FF664
:10136000FF652B404FF6FF552B408D892B43CD89D0
:101370002B4383800483CD888586028470BD70B53D
:10138000002400220023058C4FF6EF7635400584BB
:10139000028C8388048B48F6FF752C404FF6FF457E
:1013A0002C400D884FF6FF7606EA05252C434FF6B4
:1013B000DF752A400D8906EA05152A434D8806EA9D
:1013C00005152A43444DA84202D0494DA8421DD1DB
:1013D0004FF67F752A404D894FF6FF7606EA0515D0
:1013E0002A434FF6BF752A408D8806EA05152A4321
:1013F0004FF6FF352B404FF2FF752B408D8906EAE3
:1014000085052B43CD8906EA85052B43838004831C
:10141000CD880587028470BD70B5002400220023AA
:10142000058C4FF6FF6635400584028C8388848BDB
:101430004FF68F752C404FF6FC752C400D882C43D1
:101440004FF6FF552A400D894FF6FF7606EA05252F
:101450002A434D8806EA05252A431F4DA84202D09B
:10146000234DA8421DD14FF2FF752A404D894FF6FA
:10147000FF7606EA05252A434FF6FF352A408D8878
:1014800006EA05252A434EF6FF752B404DF6FF75FB
:101490002B408D8906EA05152B43CD8906EA0515F3
:1014A0002B4383808483CD888587028470BD70B58B
:1014B000002200230024058C4EF6FF76354005847B
:1014C000038C8488828B48F6FF752A404FF6FF45CF
:1014D0002A400D8820E00000002C0140000400405C
:1014E00000080040000C00400010004000140040C4
:1014F00000340140004C01400050014000540140C4
:1015000000180040001C0040002000400040014046
:1015100000440140004801404FF6FF7606EA0525E9
:101520002A434DF6FF752B400D8906EA05352B43FE
:101530004D8806EA05352B43FA4DA84202D0FA4DF4
:10154000A84208D14BF6FF752C408D894FF6FF76E7
:1015500006EA85152C4384808283CD88A0F840500C
:10156000038470BD828B4FF2FF331A408283828BDB
:101570004FF6FF7303EA01231A4382837047F0B5E5
:101580000C461546002200210026078C4EF6FF7CF3
:1015900007EA0C070784828B018C4FF6FF7707EA76
:1015A000043640F6FF473A404FF6FF7707EA052733
:1015B0003A434FF6FF7707EA03373A43D94FB84229
:1015C0000ED0D94FB8420BD0B0F1804F08D0D74FD2
:1015D000B84205D0D64FB84202D0D64FB84206D155
:1015E0004DF6FF77394046F48057394305E047F61A
:1015F000FF57394044F48057394382830184F0BD5A
:10160000828B4FF6F3731A408283828B0A43828364
:101610007047F0B50C461546002200210026078CC5
:101620004FF6FF6C07EA0C070784828B018C4FF69C
:10163000FF7707EA04264FF60C773A404FF6FF771C
:1016400007EA03172F433A43B64FB8420ED0B64FBE
:10165000B8420BD0B0F1804F08D0B44FB84205D09B
:10166000B34FB84202D0B34FB84206D14FF6FF573E
:10167000394046F48077394305E04FF2FF5739404F
:1016800044F48077394382830184F0BD028B4FF2AA
:10169000FF331A400283028B4FF6FF7303EA0123E4
:1016A0001A4302837047F0B50C461546002200210C
:1016B0000026078C4FF6EF7C07EA0C070784028BA5
:1016C000018C4FF6FF7707EA041640F6FF473A40D1
:1016D0004FF6FF7707EA03373A434FF6FF7707EAFB
:1016E00005273A438F4FB8420ED08F4FB8420BD0E8
:1016F000B0F1804F08D08D4FB84205D08C4FB84222
:1017000002D08C4FB84206D14FF6DF77394046F011
:101710001007394305E04FF65F77394044F0100772
:10172000394302830184F0BD028B4FF6F3731A40F4
:101730000283028B0A4302837047F0B50C461546BC
:1017400000220021068C4FF6FE773E400684028B75
:10175000018C4FF60C7632407E1C06EA03162E43AF
:101760003243704EB0420ED06F4EB0420BD0B0F14B
:10177000804F08D06D4EB04205D06D4EB04202D0C1
:101780006C4EB04206D14FF6FD76314044F0010672
:10179000314305E04FF6F576314044F00106314320
:1017A00002830184F0BD70B505460C465D48854254
:1017B0000ED05D4885420BD0B5F1804F08D05B4814
:1017C000854205D05A48854202D05A48854200D108
:1017D00000E000BF208850B92389A288618828468C
:1017E000FFF7ABFFE1882846FFF79EFF25E0208842
:1017F00004280AD12389A28861882846FFF753FF6D
:10180000E1882846FFF742FF17E0208808280AD120
:101810002389A28861882846FFF7FBFEE1882846D5
:10182000FFF7EEFE09E02389A28861882846FFF7CA
:10183000A6FEE1882846FFF795FE70BD2DE9F04130
:1018400005460C4600260127608808B9022600E0FC
:101850000026A088012801D1022700E00127208866
:10186000A0B92389A28861882846FFF766FFE1882E
:101870002846FFF759FF23893A4631462846FFF7A5
:1018800012FFE1882846FFF701FF13E02389A288B1
:1018900061882846FFF707FFE1882846FFF7F6FE34
:1018A00023893A4631462846FFF747FFE188284614
:1018B000FFF73AFFBDE8F0810A884B881A438B880E
:1018C0001A43CB881A430B891A434B891A438B89D5
:1018D0001A43A0F8442070474FF6FF718180002121
:1018E0000180C180418001727047002101804180E8
:1018F0008180C180018141818181C1817047002146
:1019000001804180012181800021C18001817047D7
:101910000021018041808180C180018141818181DC
:1019200070470000002C01400034014000040040DA
:1019300000080040000C004021B1028842F0010282
:10194000028004E002884FF6FE731A40028070475E
:1019500031B1B0F8442042F40042A0F8442005E040
:10196000B0F84420C2F30E02A0F8442070471AB128
:1019700083890B43838102E083898B438381704792
:101980008182704741EA0203A0F8483070471AB1DB
:1019900083890B43838102E083898B438381704772
:1019A00001894FF6F8721140018170470A46002103
:1019B00001894FF68F73194011430181704730B58B
:1019C00004460D4629462046FFF7F0FF208940F0E7
:1019D0000700208130BD2DE9F04104460D46164632
:1019E0001F46602D06D13B46012231462046FFF7B7
:1019F0005AFE05E03B46012231462046FFF79DFE98
:101A000029462046FFF7D2FF208940F007002081B9
:101A1000BDE8F08130B50C4600210189C9B24FF60E
:101A2000FF7505EA0325154325432943018130BD90
:101A30002DE9F04105460E461746984600244346D8
:101A40003A4631462846FFF7E5FF2C894FF6F870F5
:101A5000044044F007044FF68F70044044F07004D3
:101A60002C81BDE8F081F0B504460D4616461F46B0
:101A70003B46324629462046FFF7CCFF208940F4FA
:101A800080402081F0BD0185828270470A46002196
:101A900001884FF68F731940114301807047F0B5EC
:101AA0000C4615461E460021002200230189028BA8
:101AB000038C4FF6F877394021434FF6FC473A4004
:101AC00040F201173A434FF6DD773B404FF6FF7780
:101AD00007EA06172F433B43018102830384F0BDCD
:101AE0000A460021018B4FF68F7319401143018381
:101AF00070470A460021018B48F6FF7319404FF6E4
:101B0000FF7303EA02231943018370470A46002149
:101B1000818B4FF68F7319401143818370470A46BA
:101B20000021818B48F6FF7319404FF6FF7303EADB
:101B3000022319438183704721B1028842F0800259
:101B4000028004E002884FF67F731A4002807047DB
:101B500021B1828842F00402828004E082884FF63C
:101B6000FB731A408280704721B1828842F00802DC
:101B7000828004E082884FF6F7731A4082807047B3
:101B800021B1828842F00102828004E082884FF60F
:101B9000FE731A40828070470A460021018B4FF67F
:101BA000F77319401143018370470A460021018BE6
:101BB0004FF2FF7319404FF6FF7303EA02231943F4
:101BC000018370470A460021818B4FF6F773194055
:101BD0001143818370470A460021818B4FF2FF73C6
:101BE00019404FF6FF7303EA0223194381837047BC
:101BF0000A460021018B4FF6FB7319401143018304
:101C000070470A460021018B4FF6FF3319404FF60B
:101C1000FF7303EA02231943018370470A46002138
:101C2000818B4FF6FB7319401143818370470A463D
:101C30000021818B4FF6FF3319404FF6FF7303EA03
:101C400002231943818370470A460021018B4FF616
:101C50007F7319401143018370470A460021018BAD
:101C6000C1F30E014FF6FF7303EA02231943018308
:101C700070470A460021818B4FF67F73194011434C
:101C8000818370470A460021818BC1F30E014FF614
:101C9000FF7303EA02231943818370470A46002138
:101CA000018C4FF6FD7319401143018470470A46B9
:101CB0000021018C4FF6F7731940114301847047DE
:101CC0000A460021018C4FF6DF7319404FF6FF736F
:101CD00003EA02131943018470470A460021018C6C
:101CE0004FF67F7319404FF6FF7303EA021319434F
:101CF000018470470A460021018C4FF6FF531940BA
:101D00004FF6FF7303EA02231943018470470A4622
:101D10000021018C4FF2FF7319404FF6FF7303EA65
:101D200002231943018470470A460021018C4DF6B5
:101D3000FF7319404FF6FF7303EA0233194301841E
:101D4000704730B5002301248C40A3B2048C9C431F
:101D50000484048C02FA01F5ADB22C43048430BD36
:101D600030B5002304248C40A3B2048C9C4304842B
:101D7000048C02FA01F5ADB22C43048430BD70B579
:101D80000346002000241846183001258D40ACB2CF
:101D90001D8CA5431D8409B1082909D100EB610000
:101DA000056825F0700505600568154305600EE0BF
:101DB0000D1FC5F34E052844056825F4E045056070
:101DC00005684FF6FF7606EA02263543056070BDCA
:101DD00021B1028842F00202028004E002884FF63C
:101DE000FD731A400280704721B1028842F004025C
:101DF000028004E002884FF6FB731A4002807047AD
:101E000021B1828842F08002828004E082884FF60D
:101E10007F731A408280704702884FF6F7731A402A
:101E2000028002880A430280704782884FF68F73CF
:101E30001A40828082880A438280704702894FF666
:101E4000F8731A40028102890A43028170470289AD
:101E50004FF67F731A40028102890A43028170475C
:101E600081847047818570478186704701877047FC
:101E700081877047A0F84010704702884FF6FF43F3
:101E80001A40028002880A43028070470146888E09
:101E900070470146088F70470146888F704701469A
:101EA000B1F8400070470146888C70470146088DA4
:101EB000704702460020138A0B4201D0012000E047
:101EC00000207047CA430282704730B502460020A6
:101ED00000230024158A05EA0103958905EA010417
:101EE00013B10CB1012000E0002030BDCA430282D2
:101EF0007047000010B50446FB48844209D1012117
:101F00008803FFF79BF800214FF48040FFF796F815
:101F100032E0F648844209D101214804FFF79BF8DA
:101F200000214FF40030FFF796F825E0F048844296
:101F300009D101218804FFF78EF800214FF4802099
:101F4000FFF789F818E0EB48844209D10121C80461
:101F5000FFF781F800214FF40020FFF77CF80BE039
:101F6000E548844208D101210805FFF774F80021F3
:101F70004FF48010FFF76FF810BD2DE9F04786B0E1
:101F800005460E460024A24600BFA1460027B089A0
:101F900000B100BF2F462C8A4CF6FF700440F08839
:101FA00004432C82AC894EF6F3100440B08831898A
:101FB0000843718908430443AC81AC8A4FF6FF4063
:101FC0000440B0890443AC8201A8FEF7B0FFC648C4
:101FD000874202D1DDF810A001E0DDF80CA0A8894D
:101FE00010F4004F08D00AEBCA0000EB0A10316869
:101FF0004900B0FBF1F807E00AEBCA0000EB0A1059
:1020000031688900B0FBF1F86420B8FBF0F00401FE
:102010002009642101FB1089A88910F4004F08D021
:10202000322000EBC900B0FBF1F000F007000443E0
:1020300008E0322000EB09106421B0FBF1F000F061
:102040000F0004432C8106B0BDE8F0874FF4165111
:10205000016000218180C18001810C21418100212A
:102060008181704710B502460020108A4FF2FF03AD
:1020700018400B884C8823438C882343CC88234307
:102080001843108210BD0021018041808180C180F1
:10209000704721B1828942F40052828104E0828932
:1020A0004DF6FF731A4082817047F0B50346002455
:1020B000002600250020A1F510676A3F00D100BF6F
:1020C0001846C1F3421401F01F06012707FA06F56E
:1020D000012C01D10C3004E0022C01D1103000E0C1
:1020E00014301AB107682F43076002E00768AF4356
:1020F0000760F0BD1AB1838A0B43838202E0838AB2
:102100008B4383827047028A4FF6F0731A40028233
:10211000028A0A430282704782894FF2FF731A4093
:10212000828182890A438281704721B1828942F08B
:102130000202828104E082894FF6FD731A40828197
:102140007047028A4FF6DF731A400282028A0A43FE
:102150000282704721B1028A42F48042028204E086
:10216000028A4BF6FF731A4002827047C1F30802DD
:102170008280704701468888C0F3080070478189D3
:1021800041F0010181817047028BD2B20283028B40
:1021900042EA012202837047028B02F47F420283EB
:1021A000028B0A430283704721B1828A42F02002E7
:1021B000828204E0828A4FF6DF731A40828270477F
:1021C00021B1828A42F01002828204E0828A4FF6B4
:1021D000EF731A408282704721B1828A42F008026E
:1021E000828204E0828A4FF6F7731A408282704737
:1021F00021B1828942F40042828103E08289C2F3E4
:102200000E028281704721B1828A42F4006282828A
:1022100004E0828A4FF2FF731A4082827047828AFA
:102220004FF6FB731A408282828A0A438282704789
:1022300021B1828A42F00202828204E0828A4FF651
:10224000FD731A408282704702460020B1F5007F7C
:1022500000D100BF13880B4201D0012000E0002014
:10226000704701F40072B2F5007F00D100BFCA438D
:102270000280704770B5024600240023002500202C
:10228000A1F510666A3E00D100BFC1F3421501F00E
:102290001F03012606FA03F3012D02D1968933406C
:1022A00006E0022D02D1168A334001E0968A3340BF
:1022B0000C12012606FA04F41688344013B10CB14E
:1022C000012000E0002070BD10B500220023A1F520
:1022D00010646A3C00D100BF0A1201249440A3B2EA
:1022E000DC43048010BD0000003801400044004081
:1022F00000480040004C004000500040642001F0C5
:102300005BFF00F0B2FF642001F056FF00F09BFE7F
:1023100000F0F0FE02F088F900F068FD02F0A8FD80
:1023200000F028FD00F062FE00F066FE00F06AFE9C
:1023300002F049FA0120FE4908700020FD490870AA
:1023400003F03EF8012003F0E0F80021012003F043
:102350002BF9022003F0D9F803F076F92BE2F648C6
:102360000088B0F5967F04DB0020F349088002F076
:102370009CFAF2480088B0F5C87F2BDB0020EF49BB
:10238000088002F0B0F900BF0B2002F0E7F900BFAF
:10239000002405E0EA48005DEA490855601CC4B223
:1023A0000C2CF7DB00BFE748807810F0010F0ED14E
:1023B000E448407910F0010F09D1E248007A10F0AA
:1023C000010F04D1DF48C07A10F0010F01D002F0F4
:1023D000FAF900BFDC48C16CDC4803F000FA04469F
:1023E000D948016C204603F030FAD9490860084604
:1023F0000068D549C8650846C06DD64908600846DA
:102400000078D54981F85C00D248407881F85D00B9
:10241000D048807881F85E00CE48C07881F85F00AF
:10242000012081F8680081F8690081F86A0081F86C
:102430006B00032081F86C00012081F86D000820FA
:1024400081F86E00012081F86F00C44800780128EF
:1024500057D10020C2490870C24908702BE0BE481D
:10246000BF490978405CBB490870BB49BC4800784B
:10247000401C085CB7494870B749B9480078801CCF
:10248000085CB4498870B449B5480078C01C085C41
:10249000B049C87008460068AB49B24A127841F8A2
:1024A0002200AF480078001DAD490870AD480078A3
:1024B000401CAC490870AB4800780F28CFDB0020E7
:1024C000A94908700EE0A048A749097850F82100F2
:1024D000A649A54A127841F82200A3480078401C7A
:1024E000A1490870A04800780F28ECDB3C220021AD
:1024F0009E4802F0E7FD00BF00BF00BF00209749E3
:1025000008709B480078012859D13C2099490870EF
:102510000F20994908702BE08F4896490978405C54
:102520008C4908708C4993480078401C085C8949A4
:10253000487089498F480078801C085C85498870FC
:1025400085498C480078C01C085C8249C8700846E0
:1025500001687D48884A127840F822108548007842
:10256000001D8449087084480078401C8249087026
:10257000814800781E28CFDB0F20804908700FE0CB
:1025800071487E49097850F821107C4800780F384E
:10259000764A42F8201079480078401C7749087044
:1025A000764800781E28EBDB3C2240216F4802F081
:1025B00089FD00BF00BF00BF00206D4908705C4866
:1025C0000078012877D100BF3C220021674802F043
:1025D000C9FD00BF0020644908700EE063486249ED
:1025E000097850F8211058485F4A127840F82210B4
:1025F0005D480078401C5C4908705B4800780F28F3
:10260000ECDB00205E4908705E49087029E04E4806
:102610005C49097850F821004E4908600846017865
:102620004D48574A127881544A4841784A4A54489A
:102630000078401C11544748817851480078801C2C
:1026400011544448C1784E480078C01C11544C487D
:102650000078001D4A4908704A480078401C4949E2
:102660000870484800780F28D1DB00BF3C22402189
:102670003E4802F077FD00BF00203B4908700FE0A4
:102680003A483949097850F821202F4936480078CE
:102690000F3041F8202034480078401C324908703F
:1026A000314800780F28EBDB3C20354908700F20BB
:1026B000344908702AE031E023483249097850F85B
:1026C0002100244908600846017823482C4A1278E2
:1026D000815420484178204A29480078401C1154F0
:1026E0001C48817826480078801C11541948C1780C
:1026F00023480078C01C115421480078001D20494F
:10270000087020480078401C1E4908701D48007859
:102710001E28D1DB00BF00200549087001F05AFDDA
:1027200019480078012801D101F0F6FB00202DE0C6
:102730006512002002120020980100209A0100205A
:102740004428002050280020A40100200000164446
:102750008C01002068120020B01C0020F61100201F
:102760005200002053000020011200206C2800209D
:10277000F7110020540000205500002056000020D2
:102780004E000020450000208900002019490870F3
:1027900019480078192805DB4FF400711748FEF737
:1027A0002AFA08E04FF400711448FEF722FA0221D9
:1027B0001348FEF71EFAD2E570B502460C46FF2517
:1027C000FF2309E012F8010B80EA05010D48405C87
:1027D00080EA03050C48435C2000A4F10106B4B272
:1027E000F0D143EA052070BD00E0401E0028FCD176
:1027F00070470000890000204600002000100140C2
:1028000000200140E00F0020E0100020704700BFD2
:10281000FEE700BFFEE700BFFEE700BFFEE7704730
:102820007047704770472DE9F0410121FE48FFF7DE
:102830004CFB18B10121FC48FFF758FB00BFFB48D7
:102840000088401CF9490880F9480088401CF84974
:102850000880F8480078401CF6490870F64800786F
:10286000401CF549087008460078322801DB00203A
:102870000870F2480088F2490880F2480088401C3D
:10288000F0490880F0480078401CEF490870EF4894
:102890000088401CED490880ED480068401CEC4968
:1028A00008600846006803F0B7F906460022E94BC5
:1028B00003F024F9044603F02FFAE7490860E749DA
:1028C000086CE74902F08BFF0446E148006803F01A
:1028D0008DF90546214603F03BFA0BD10120E14971
:1028E00081F832000020DA490860DF480078401C97
:1028F000DD490870DD480068DD4908600846007859
:10290000D8490874DA4840784874D948807888747F
:10291000D748C078C874D0480068D54908600846D0
:102920000078D0490875D24840784875D0488078FA
:102930008875CF48C078C875CB48007803F056F941
:10294000CB49086008460078C6490876C8484078F0
:102950004876C74880788876C548C078C876C54824
:102960000068C349086008460078BE490877C04837
:1029700040784877BE4880788877BD48C078C87767
:10298000BD480068BA49086008460078B54981F832
:102990002000B748407881F82100B548807881F858
:1029A0002200B348C07881F82300B4480068B049D9
:1029B000086008460078AB4981F82400AC484078AC
:1029C00081F82500AA48807881F82600A848C078B8
:1029D00081F827009D480088B0F57A7F07D1002054
:1029E0009A49088002F02AFC0120A5490870A448F1
:1029F0000078012854D19B4890F83000012843D139
:102A0000964988699F4902F092FE04469E480168F3
:102A1000204603F0A7F92AD84FF07E519B48006862
:102A200002F0D7FE9949086000219848006803F039
:102A300099F90CD204219648FEF7DDF8012095495A
:102A4000087008460078874981F8280028E00421AA
:102A50008F48FEF7CEF800208E49087008460078AF
:102A6000804981F8280000208549087018E0042179
:102A70008748FEF7BEF800208649087008460078AF
:102A8000784981F828000BE004218148FEF7B1F86D
:102A900000208049087008460078724981F82800B3
:102AA0007D48008870BB4FF480517C48FEF787F862
:102AB00088B900207A4908800121382002F0AFFC53
:102AC000012002F0CFFD7749088077480088401C3C
:102AD0007549088023E072480088401C70490880CE
:102AE000084600881E281AD1012002F00EFD0021A0
:102AF000012002F059FD00206C4908800120664940
:102B000008800CE069480088401C68490880084635
:102B10000088FA2803DB002008805F490880BDE8B0
:102B2000F08110B501216248FFF7CFF918B10121FA
:102B30005F48FFF7DBF900BF4A4890F832000128F0
:102B400024D1484981F829005A480088401C594935
:102B5000088008460088022818DB0020088000F062
:102B600069F955480088401C534908800846008888
:102B7000B0F5C86F0AD100203A4981F8320081F8D7
:102B800029004D49088001204C49087010BD10B53E
:102B900040F225514A48FFF76DFB002842D04848D3
:102BA000FFF7E8FA4749484A12888854464800889F
:102BB000401E085CAA2808D1084643490988405CA1
:102BC000032802D1012041490870404800780128BB
:102BD00017D13C483C490988405C3D493D4A127840
:102BE00088543C480078401C3A49087008460078F0
:102BF000072806D1002008703449087001203649A2
:102C0000087031480088401E2E49085CAA2808D167
:102C100008462D490988405C102802D101202F491F
:102C200008705DE087E00000001000409A0100207D
:102C300098010020001200204600002024080040D7
:102C4000A201002048000020410000204A0000208E
:102C50007001002000407F4074010020A40100208A
:102C60000000FA43E82000208801002078010020BD
:102C7000681200207C0100208001002084010020D7
:102C8000880000200000204128120020840000203D
:102C9000001C0140021200205E00002000200140C4
:102CA0005A00002058000020600000205C00002036
:102CB00000140040041200209C0100208900002024
:102CC00000440040902300204C0000204F000020D2
:102CD0002822002044000020E111002050000020A4
:102CE0001D48007801281AD11C481D490988405CFC
:102CF0001C491D4A127888541B480078401C1A4908
:102D000008701848407908300978884207D10020B7
:102D100015490870104908700120144908701048BE
:102D20000088401C0E49088008460088B0F57A7F6C
:102D300001D10020088010BD10B540F225510C488B
:102D4000FFF798FA38B10A48FFF714FAC4B22146DF
:102D50000748FFF70BFA10BD500000209023002019
:102D60004C000020282200205100002039000020C3
:102D7000004C004008B501214FF4CC70FEF744F937
:102D80000220ADF8000003208DF8020010208DF81D
:102D9000030069463048FDF781FE2020ADF80000B1
:102DA00003208DF8020010208DF8030069462A48A0
:102DB000FDF774FE4FF40070ADF8000003208DF8AD
:102DC000020010208DF8030069462448FDF766FED6
:102DD0000220ADF8000003208DF8020010208DF8CD
:102DE000030069461E48FDF759FE08BD08B50121DC
:102DF0008020FEF709F9FC20ADF8000002208DF8D4
:102E0000020010208DF8030069461648FDF746FEC3
:102E100008BD10B501211048FDF7D1FE012804D1ED
:102E200001210D48FDF7E7FE03E001210A48FDF707
:102E3000E0FE10BD10B580210A48FDF7C0FE012854
:102E400004D180210748FDF7D6FE03E08021054824
:102E5000FDF7CFFE10BD0000000C01400010014046
:102E600000200140001C014008B54FF4E060FDF770
:102E700069FA36208DF8000000208DF8010003204B
:102E80008DF8020001208DF803006846FDF75FFA17
:102E900008BD08B54FF4E060FDF754FA37208DF80F
:102EA000000000208DF8010001208DF802008DF84F
:102EB00003006846FDF74BFA08BD08B54FF4E06023
:102EC000FDF740FA37208DF8000000208DF8010052
:102ED00002208DF8020001208DF803006846FDF7FE
:102EE00036FA08BD0EB501211020FEF79AF840F21F
:102EF000CF70ADF804004720ADF8000069464448A3
:102F0000FEF7BEF901214248FEF7DCFF012211461F
:102F10003F48FEF72CFD01213D48FEF70DFD0EBD9B
:102F20000EB501212020FEF77CF83120ADF8040019
:102F30004720ADF8000069463648FEF7A1F90121A7
:102F40003448FEF7BFFF012211463248FEF70FFD5D
:102F500001213048FEF7F0FC0EBD00B587B001211D
:102F60000420FEF75EF801210820FEF74DF8C0208E
:102F7000ADF8180048208DF81B0003208DF81A00CA
:102F800006A92548FDF78AFD2448FEF7A5F84FF469
:102F9000FA50ADF810000020ADF80C004FF40070AE
:102FA000ADF812000020ADF80E0003A91B48FEF793
:102FB00067F900231A4603211848FEF770FD68469A
:102FC000FEF79DFC0820ADF806000620ADF80800CD
:102FD00069461248FEF7E7FB0020104924310880BB
:102FE00001210E48FEF7A8FC07B000BD10B5FFF7A1
:102FF0003BFFFFF777FF10BD10B5FFF74AFFFFF764
:103000008FFF10BD10B5FFF758FFFFF7A6FF10BDEB
:103010000010004000140040000C01400008004077
:1030200008B54FF4A060FDF78DF926208DF800005B
:1030300001208DF801008DF802008DF8030068462C
:10304000FDF785F908BD00B585B001210420FDF725
:10305000DBFF01214804FDF7E4FF0420ADF8100078
:1030600018208DF8130003208DF8120004A9FE48E3
:10307000FDF714FD0820ADF8100004208DF81300B2
:1030800004A9F948FDF70AFD4FF41640009000200E
:10309000ADF80400ADF80600ADF80800ADF80C007E
:1030A0000C20ADF80A006946F048FEF766FFFFF70E
:1030B000B7FF012240F22551EC48FEF7F6FF01214F
:1030C000EA48FEF7E6FF05B000BD08B54FF4A06082
:1030D000FDF738F934208DF8000001208DF801004B
:1030E00002208DF8020001208DF803006846FDF7EC
:1030F0002EF908BD00B585B001211020FDF784FF31
:103100000121C804FDF78DFF4FF48060ADF8100079
:1031100018208DF8130003208DF8120004A9D4485C
:10312000FDF7BCFC4FF40060ADF8100004208DF8F2
:10313000130004A9CE48FDF7B1FC4FF416500090DF
:103140000020ADF80400ADF80600ADF80800ADF8B9
:103150000C000C20ADF80A006946C648FEF70DFFCA
:10316000FFF7B3FF012240F22551C248FEF79DFF51
:103170000121C048FEF78DFF05B000BD70B50446C3
:103180000D4629462046FEF7F1FF00BF802120466C
:10319000FFF75AF80028F9D070BD2DE9F041074635
:1031A0000D461646002405E0295D3846FFF7E6FF88
:1031B000601CC4B2B442F7DB00BF40213846FFF7C1
:1031C00043F80028F9D0BDE8F08170B506460C46FA
:1031D000002500BF615D3046FFF7D0FF6D1C605DCC
:1031E0000028F7D100BF40213046FFF72DF8002816
:1031F000F9D070BD2DE9F04105460C46260AE7B22C
:1032000031462846FEF7B2FF00BF80212846FFF76F
:103210001BF80028F9D039462846FEF7A7FF00BF63
:1032200080212846FFF710F80028F9D0BDE8F0818A
:1032300070B504460D46E1B28F48FEF797FF00BF18
:1032400080218D48FFF700F80028F9D0204670BD96
:1032500010B5044600BF20218748FEF7F5FF00287F
:10326000F9D08548FEF786FF10BD10B5FDF762FD69
:103270004FF48030FDF77EFD00BF3120FDF79DFD4E
:103280000028FAD01020FDF7DFF80220FDF7C8F87B
:103290000020FDF7F4FD0020FDF703FE4FF48060F1
:1032A000FDF7F6FD4FF4E0114FF48030FDF7CAFD55
:1032B0000120FDF7D3FD00BF3920FDF77EFD00287A
:1032C000FAD00220FDF7CDFD00BFFDF7D3FD0828A1
:1032D000FBD101210420FDF797FE01210820FDF715
:1032E00093FE01212020FDF78FFE01214020FDF7F4
:1032F0008BFE01218020FDF787FE01210802FDF7EA
:1033000083FE01218803FDF77FFE01210846FDF7BA
:103310006EFE01210846FDF784FE01210220FDF723
:1033200080FE01210420FDF77CFE10BD10B50D21AB
:103330005048FFF723FF0A214E48FFF71FFF10BD3B
:1033400010B50446204602F0EBF94C4908804C4881
:103350000078401C4A49087000204A4908800FE064
:1033600048480088215C4348FFF708FF444800783C
:10337000401C4349087043480088401C414908806C
:10338000404800883D4909888842E9DB10BD10B5F6
:103390003D480078202804D03B4801783548FFF7A5
:1033A000EDFE39484078202804D03748417831482C
:1033B000FFF7E4FE34488078202804D03248817832
:1033C0002C48FFF7DBFE3048C078202804D02E4878
:1033D000C1782848FFF7D2FE2B480079202804D076
:1033E000294801792348FFF7C9FE2748407920285A
:1033F00004D0254841791F48FFF7C0FE2248807954
:10340000202804D0204881791A48FFF7B7FE1E48CB
:10341000C079202804D01C48C1791648FFF7AEFEB9
:1034200010BD2DE9F74F86B00C4615460026002743
:10343000B046B146B246B3460020059004900390D2
:103440000290069802900021029802F081FC1FD29F
:103450002D202070069802F024FC21F00041CDE9D7
:10346000000102F059FC11E0000801400044004056
:1034700000100140004C0040003801406C01002069
:103480008A0000206A010020F8110020069001E067
:10349000202020704DB94FF07E51069802F09FF920
:1034A000019002F0C6FB06462AE0012D08D1F8493A
:1034B000069802F094F9019002F0BBFB06461FE06B
:1034C000022D08D1F349069802F089F9019002F023
:1034D000B0FB064614E0032D08D1EF49069802F030
:1034E0007EF9019002F0A5FB064609E0042D07D104
:1034F000EA49069802F073F9019002F09AFB064639
:103500000A20B6FBF0F100FB1167B6FBF0F00A21D0
:10351000B0FBF1F201FB12086420B6FBF0F0B0FB47
:10352000F1F201FB12094FF47A70B6FBF0F0B0FB38
:10353000F1F201FB120A42F21070B6FBF0F0B0FBA0
:10354000F1F201FB120BD648B6FBF0F0B0FBF1F242
:1035500001FB12000590D348B6FBF0F0C0B2049016
:1035600007F13000C7B208F1300000F0FF0809F1A0
:10357000300000F0FF090AF1300000F0FF0A0BF103
:10358000300000F0FF0B05983030C0B20590049871
:103590003030C0B20490039830300390002D77D1C2
:1035A00003982070049860700598A07084F803B0A8
:1035B00084F804A084F8059084F80680E77100215F
:1035C000029802F0CFFB12D8029802F06AFB0022A8
:1035D000B54BCDE9000102F077FB08D22020207026
:1035E0006070A070E07020716071A07101E20298BB
:1035F00002F057FB0022AC4BCDE9000102F078FB52
:1036000011D8029802F04DFB0022A84BCDE9000131
:1036100002F05AFB07D2202020706070A070E0708A
:1036200020716071E2E7029802F03BFB00229F4BA1
:10363000CDE9000102F05CFB10D8029802F031FBEA
:1036400000229B4BCDE9000102F03EFB06D2202078
:1036500020706070A070E0702071C7E7029802F0DF
:1036600020FB0022924BCDE9000102F041FB10D873
:10367000029802F016FB00228E4BCDE9000102F009
:1036800023FB06D2202020706070A070E070ADE7B0
:1036900026E1029802F005FB0022864BCDE90001ED
:1036A00002F026FB0ED8029802F0FBFA0022824BB1
:1036B000CDE9000102F008FB04D2202020706070E8
:1036C000A07093E7029802F0ECFA00227A4BCDE961
:1036D000000102F00DFB0DD8029802F0E2FA002280
:1036E000764BCDE9000102F0EFFA03D220202070E2
:1036F00060707BE7029802F0D4FA00226F4BCDE9AC
:10370000000102F0F5FA0CD8029802F0CAFA002281
:103710006B4BCDE9000102F0D7FA02D220202070D5
:10372000F6E30021029802F013FB13D2029802F094
:10373000B8FA0022634BCDE9000102F0D9FA09D2B0
:10374000202020706070A070E070207160712D20CA
:10375000A071DDE3029802F0A4FA00225A4BCDE9F1
:10376000000102F0C5FA12D2029802F09AFA002281
:10377000544BCDE9000102F0A7FA08D820202070B0
:103780006070A070E07020712D206071C0E302981D
:1037900002F087FA00224D4BCDE9000102F0A8FAB1
:1037A00011D2029802F07DFA0022474BCDE90001C8
:1037B00002F08AFA07D8202020706070A070E070B4
:1037C0002D202071A4E3029802F06BFA0022404BF6
:1037D000CDE9000102F08CFA10D2029802F061FAF1
:1037E00000223A4BCDE9000102F06EFA06D8202003
:1037F00020706070A0702D20E07089E3029802F0C4
:1038000050FA0022334BCDE9000102F071FA0FD2D9
:10381000029802F046FA00222D4BCDE9000102F099
:1038200053FA05D82020207060702D20A0706FE31F
:10383000029802F036FA0022274BCDE9000102F08F
:1038400057FA0ED2029802F02CFA0022214BCDE951
:10385000000102F039FA04D8202020702D20607079
:1038600056E3029802F01DFA00221C4BCDE900013C
:1038700002F03EFA8AD2029802F013FA0022164BA6
:10388000CDE9000102F020FA9CD82D2020703FE302
:10389000000020410000C84200007A4400401C465D
:1038A000A086010040420F00000024400000594063
:1038B00000408F400088C340006AF84080842E4159
:1038C000D0126341000024C0000059C000408FC0E6
:1038D0000088C3C0006AF8C080842EC1D01263C1C2
:1038E000012D6FD1049820700598607084F802B0A3
:1038F00084F803A084F8049084F805802E20A07139
:10390000E7710021029802F02DFA10D8029802F017
:10391000C8F90022FC4BCDE9000102F0D5F906D22E
:10392000202020706070A070E0702071F0E202989A
:1039300002F0B7F90022F44BCDE9000102F0D8F90A
:103940000FD8029802F0ADF90022F04BCDE900014A
:1039500002F0BAF905D2202020706070A070E070EB
:10396000D6E2029802F09DF90022E84BCDE9000171
:1039700002F0BEF90ED8029802F093F90022E44B4F
:10398000CDE9000102F0A0F904D22020207060707F
:10399000A070BDE2029802F084F90022DC4BCDE970
:1039A000000102F0A5F90ED8029802F07AF900227F
:1039B000D84BCDE9000102F087F904D22020207015
:1039C0006070A5E292E0029802F06BF90022D14B00
:1039D000CDE9000102F08CF90CD8029802F061F9EF
:1039E0000022CD4BCDE9000102F06EF902D2202079
:1039F00020708DE20021029802F0AAF911D20298FB
:103A000002F04FF90022C54BCDE9000102F070F938
:103A100007D2202020706070A070E0702D202071EF
:103A200076E2029802F03DF90022BD4BCDE900019B
:103A300002F05EF910D2029802F033F90022B74B7F
:103A4000CDE9000102F040F906D820202070607016
:103A5000A0702D20E0705BE2029802F022F90022B3
:103A6000B04BCDE9000102F043F90FD2029802F009
:103A700018F90022AA4BCDE9000102F025F905D87A
:103A80002020207060702D20A07041E2029802F08A
:103A900008F90022A44BCDE9000102F029F90ED269
:103AA000029802F0FEF800229E4BCDE9000102F0E0
:103AB0000BF904D8202020702D20607028E2029895
:103AC00002F0EFF80022994BCDE9000102F010F965
:103AD0008FD2029802F0E5F80022934BCDE9000165
:103AE00002F0F2F885D82D20207011E2022D7DD150
:103AF000049820700598607084F802B084F803A0E0
:103B000084F804902E20607184F80680E77100210B
:103B1000029802F027F90FD8029802F0C2F80022AA
:103B2000794BCDE9000102F0CFF805D220202070BA
:103B30006070A070E070EBE1029802F0B2F8002231
:103B4000714BCDE9000102F0D3F80ED8029802F0D3
:103B5000A8F800226D4BCDE9000102F0B5F804D2BF
:103B6000202020706070A070D2E1029802F099F8D5
:103B70000022664BCDE9000102F0BAF80DD8029898
:103B800002F08FF80022624BCDE9000102F09CF8B0
:103B900003D2202020706070BAE1029802F081F810
:103BA00000225B4BCDE9000102F0A2F80CD802988C
:103BB00002F077F80022574BCDE9000102F084F8BB
:103BC00002D220202070A3E10021029802F0C0F868
:103BD00012D2029802F065F80022504BCDE90001A4
:103BE00002F086F808D22020207000E04EE06070DD
:103BF000A0702D20E0708BE1029802F052F80022B4
:103C0000474BCDE9000102F073F80FD2029802F0A1
:103C100048F80022414BCDE9000102F055F805D8E3
:103C20002020207060702D20A07071E1029802F0B9
:103C300038F800223B4BCDE9000102F059F80ED2D2
:103C4000029802F02EF80022354BCDE9000102F077
:103C50003BF804D8202020702D20607058E1029895
:103C600002F01FF80022304BCDE9000102F040F8CD
:103C700092D2029802F015F800222A4BCDE90001F9
:103C800002F022F888D82D20207041E1032D7CD14C
:103C9000049820700598607084F802B084F803A03E
:103CA0002E20207184F8059084F80680E7710021A9
:103CB000029802F057F80ED8029801F0F2FF0022A5
:103CC000114BCDE9000101F0FFFF04D2202020704C
:103CD0006070A0701CE1029801F0E3FF00220A4B23
:103CE000CDE9000102F004F822D8029801F0D9FFD2
:103CF0000022064BCDE9000101F0E6FF18D220209A
:103D00002070607004E10000000024400000594071
:103D100000408F400088C340006AF840000024C083
:103D2000000059C000408FC00088C3C0006AF8C0BE
:103D3000029801F0B6FF0022FB4BCDE9000101F033
:103D4000D7FF0CD8029801F0ACFF0022F74BCDE969
:103D5000000101F0B9FF02D220202070D8E00298C3
:103D600001F09FFF0022F14BCDE9000101F0C0FFFF
:103D700009D8029801F095FF0022ED4BCDE9000132
:103D800001F0A2FF19D3029800E05CE001F089FF86
:103D90000022E74BCDE9000101F0AAFF0ED80298FE
:103DA00001F07FFF0022E34BCDE9000101F08CFF21
:103DB00004D2202020706070A070A9E00021029839
:103DC00001F0C6FF0FD2029801F06BFF0022DA4B20
:103DD000CDE9000101F08CFF05D220202070607039
:103DE0002D20A07094E0029801F05BFF0022D34BDD
:103DF000CDE9000101F07CFF0ED2029801F051FFE5
:103E00000022CD4BCDE9000101F05EFF04D8202057
:103E100020702D2060707BE0029801F042FF0022AC
:103E2000C74BCDE9000101F063FF71D2029801F0A8
:103E300038FF0022C14BCDE9000101F045FF67D8F2
:103E40002D20207064E0042D62D104982070059824
:103E5000607084F802B02E20E07084F804A084F82A
:103E6000059084F80680E7710021029801F07AFF3E
:103E70000DD8029801F015FF0022B24BCDE90001E8
:103E800001F022FF03D220202070607040E00298F1
:103E900001F007FF0022AB4BCDE9000101F028FF44
:103EA0000CD8029801F0FDFE00229F4BCDE90001E5
:103EB00001F00AFF02D22020207029E000210298A0
:103EC00001F046FF0ED2029801F0EBFE00229A4B61
:103ED000CDE9000101F00CFF04D2202020702D203C
:103EE000607015E0029801F0DCFE0022934BCDE9F2
:103EF000000101F0FDFE0BD2029801F0D2FE00227B
:103F00008D4BCDE9000101F0DFFE01D82D2020709E
:103F1000204609B0BDE8F08F10B51B218A48FFF795
:103F20002DF940218848FFF729F91C218648FFF721
:103F300025F926218448FFF721F98448FFF700FA84
:103F400020218148FFF71AF920217F48FFF716F951
:103F50007F48FFF7F5F9FFF7E9F97E48FFF7F0F939
:103F60007D490222486E7D49FFF75BFAFFF70FFAA1
:103F700020217548FFF702F97948FFF7E1F9FFF7CB
:103F8000D5F97848FFF7DCF973490222086E7349C6
:103F9000FFF747FAFFF7FBF920216B48FFF7EEF830
:103FA0007148FFF7CDF9FFF7C1F97048FFF7C8F97D
:103FB00069490222C86D6949FFF733FAFFF7E7F94B
:103FC00020216148FFF7DAF86948FFF7B9F9FFF7F0
:103FD000ADF96848FFF7B4F95F490422C86C5F493E
:103FE000FFF71FFAFFF7D3F920215748FFF7C6F86C
:103FF0006148FFF7A5F9FFF799F96048FFF7A0F9C5
:1040000055490222486C5549FFF70BFAFFF7BFF9F3
:1040100020214D48FFF7B2F85948FFF791F9FFF713
:1040200085F95848FFF78CF94B490222886C4B49B7
:10403000FFF7F7F9FFF7ABF920214348FFF79EF8A8
:104040005148FFF77DF9FFF771F95048FFF778F90C
:1040500041490222086C4149FFF7E3F9FFF797F95C
:1040600020213948FFF78AF84948FFF769F9FFF737
:104070005DF94848FFF764F937490222C86B3749B0
:10408000FFF7CFF9FFF783F920212F48FFF776F8E4
:104090004148FFF755F9FFF749F94048FFF750F954
:1040A0003F48FFF74DF9FFF741F93E48FFF748F960
:1040B0003D48FFF745F9FFF739F93C48FFF740F96C
:1040C0003B48FFF73DF9FFF731F9FFF72FF9FFF70D
:1040D0002DF91B211C48FFF751F869211A48FFF7F9
:1040E0004DF801211848FFF749F81C211648FFF741
:1040F00045F847211448FFF741F82E48FFF720F90B
:10410000FFF714F91B211048FFF738F866210E4815
:10411000FFF734F801210C48FFF730F806210A4870
:10412000FFF72CF810BD00000000594000408F4000
:104130000088C340006AF840000024C0000059C055
:1041400000408FC000002440004C0040A700002029
:10415000BB000020C4000020A4010020F8110020B2
:10416000CE000020D4000020D9000020E300002071
:10417000E8000020F0000020FA000020FC000020F1
:10418000060100200A010020140100201701002070
:1041900021010020230100202D01002030010020FA
:1041A0003A0100203F010020490100205901002070
:1041B000630100208B000020002108E04FF4FA5238
:1041C00001E0531E9AB2002AFBDC4B1C99B28142DB
:1041D000F4DB704710B5F348007801287ED1AA209F
:1041E000F14908700120F149087010E0EF480078AB
:1041F000401EEF49095CEC48EC4A127881540120DA
:10420000EC490870E9480078401CE8490870E74824
:1042100000780828EADBE748007801280ED106215B
:10422000E148FEF7C9FAE449088008460088001210
:10423000E2490870E0480078E1490870DA4880797E
:10424000DE4909788842C9D1D748C079DC49097864
:104250008842C3D1D4480078DA490870D2484078FF
:104260004870D1484079D049097940EA0120400698
:10427000000ED4498870CC48807850BB0020D249C9
:1042800008701AE0C848C078D0490978022202FBB9
:104290000010CF49095CCB4ACB480078C01C1154B0
:1042A000CA480078401CC94908700120C9490870F3
:1042B000C5480078401CC4490870BB48407940009C
:1042C000B949C978022202FB0100BF490978884236
:1042D000D8DCB548807801282CD100E063E00020CC
:1042E000B94908701AE0B048C078B8490978022284
:1042F00002FB0010B849095CB24AB3480078C01C00
:104300001154B2480078401CB04908700120B149EE
:104310000870AD480078401CAB490870A24840794D
:104320004000A149C978022202FB0100A649097890
:104330008842D8DCA7480078012834D19A484079CF
:104340004000C11C9F48FEF737FA9B490880084689
:1043500000880012A149087097480078A0490870A9
:104360009E480178904840794000C01C954A1154FD
:104370009B4801788C4840794000001D11548A48C0
:1043800040794000421D8F499648FEF706FF002005
:104390008E49087083490870864908708D490870F5
:1043A0000120914908709148007801287ED1AA2007
:1043B0007D49087001208E49087010E08C48007813
:1043C000401E7B49095C7848894A12788154012053
:1043D0008849087086480078401C854908707248F2
:1043E00080790930824909788842E7DC8148007881
:1043F000012810D16C488079C11D6B48FEF7DCF9AB
:104400006D4908800846008800127B4908706A4898
:1044100000787A49087064488079C01D6249085C58
:10442000754909788842C1D15F48807908305E4972
:10443000085C724909788842B8D15B488078B0BB83
:104440005948C07810B901206D4908705648C078A5
:104450001E2802D101206B49087007206A490870A4
:1044600021E0514868490978405C4F49C978674A5A
:104470001278022303FB0121574A50546348007805
:10448000401C62490870484880790978884205D103
:1044900000205E49087001205D4908705A48007884
:1044A000401C594908704048807901E079E004E0F7
:1044B000C01D554909788842D3DC3B4880780128E3
:1044C0002CD107205049087021E037484E4909781F
:1044D000415CC0784D4A1278022303FB0020303043
:1044E0003B4A115449480078401C484908702E48FE
:1044F00080790978884205D100204449087001205C
:104500004349087040480078401C3F4908702648DD
:104510008079C01D3C4909788842D6DC3C48007847
:1045200001283ED100203B4908700FE01E48394960
:104530000978415C3848374A12788154012037495C
:10454000087034480078401C3249087031480078BF
:104550000628EBDB31480078012822D106212E48BD
:10456000FEF72AF9144908800846008800122C49F1
:104570000870114800782B490870294800782649AE
:10458000887128480078C87108221648FEF705FE91
:104590000020164908701E490870164908701F4906
:1045A000087010BDE1110020A0220020E0110020C1
:1045B0002822002035000020F2110020E211002006
:1045C000E3110020182300203600002037000020CF
:1045D000E820002038000020B01C0020E511002059
:1045E000E411002000440040420000203900002077
:1045F0003B0000203A000020E7110020E6110020D7
:10460000F6110020F71100203C0000203D000020A2
:104610003E00002040000020EA1100203F00002062
:10462000E9110020E811002008B501210820FCF75D
:10463000EBFC4FF48050ADF8000002208DF8020032
:1046400010208DF803006946FE48FCF727FA4FF466
:104650008040ADF8000002208DF8020010208DF897
:1046600003006946F748FCF719FA4FF40040ADF82B
:10467000000002208DF8020010208DF8030069462A
:10468000F048FCF70BFA4FF40050ADF800000220A0
:104690008DF8020004208DF803006946E948FCF714
:1046A000FDF908BD0021014602E000BF4A1ED1B25B
:1046B0000029FADC704710B500244FF48051E1481E
:1046C000FCF799FA00BF06E04FF48051DD48FCF793
:1046D00090FA601CC4B2142CF6DB4FF48051D94818
:1046E000FCF789FA10BD2DE9F041054600240027AA
:1046F00000264FF40041D348FCF77DFA1420FFF761
:10470000D1FF00BF1EE0D048065D002716E006F08E
:104710008000802804D1C101CA48FCF76AFA04E08D
:104720004FF48041C748FCF766FAFFF7C4FF142036
:10473000FFF7B8FF7006060E781CC7B2082FE6DB3D
:10474000601CC4B2AC42DEDD1420FFF7ABFF4FF4B7
:104750000041BC48FCF74DFABDE8F0812DE9F0417D
:1047600006460024002700254FF40041B548FCF719
:1047700042FA1420FFF796FF00BF18E0002500273B
:104780000FE06806050E4FF40051AE48FCF717FA2B
:104790002844C5B2FFF78FFF1420FFF783FF781C72
:1047A000C7B2082FEDDBA8480555601CC4B2B4425F
:1047B000E4DD1420FFF776FF4FF40041A148FCF739
:1047C00018FABDE8F08110B500244FF480519D48DF
:1047D000FCF711FAFF209C49087000BF04E000209C
:1047E000FFF781FF601CC4B20F2CF8DBFE20964956
:1047F00008700020FFF777FF03209349087000201E
:10480000487088708020C8700320FFF76CFF00BFDD
:104810000B208D4908700020FFF765FF0220FFF78D
:104820009DFF8948807810F0400F00D1F0E7032009
:1048300085490870002048708870C8700320FFF711
:1048400052FF03208049087007204870302088708C
:104850000020C8700320FFF746FF05207A49087042
:104860000720487020208870F220C8701720087137
:1048700021204871F22088710620FFF734FF0020C4
:10488000714908704FF480516E48FCF7B4F900206C
:10489000FFF729FF80206C49087041016948FCF747
:1048A000AAF90020FFF71FFF10BD2DE9FF5F674841
:1048B00040786649097840EA012000B264490880DE
:1048C000624800796149C97840EA012000B2614933
:1048D00008805E48C0795D49897940EA012000B2CC
:1048E0005D4908805948807A5849497A40EA012050
:1048F00000B25A4908805A48B0F9000001F07BF92B
:104900000646584A584B01F087F804460D46504871
:10491000B0F9000001F06FF90646524A534B01F01E
:104920007BF8804622462B4600F0CFFF824601F0FE
:1049300099F900B2464908804D48B0F9000001F0ED
:104940005AF90646474A484B01F066F882468B46BC
:104950004048B0F9000001F04EF90646414A434B89
:1049600001F05AF8804652465B4600F0AEFF04461E
:1049700001F078F900B2374908803E48B0F90000EC
:1049800001F039F90646374A374B01F045F88246BF
:104990008B463148B0F9000001F02DF90646314A46
:1049A000324B01F039F8044652465B4600F08DFF69
:1049B000804601F057F900B2274908802E48B0F927
:1049C000000001F018F98046264A274B01F024F830
:1049D00006460F462148B0F9000001F00CF9804668
:1049E000204A224B01F018F8824632463B4600F03E
:1049F0006CFF044601F036F900B2184908801448EB
:104A0000B0F90000164908801248B0F900001849B2
:104A100008801148B0F90000164908800F48B0F925
:104A20000000154908800A48B0F9000001F0D5F8E7
:104A3000009012484168009800F079FE019001F062
:104A400030F91DE0000C01404428002050280020CF
:104A500006120020081200200A1200200C1200206A
:104A6000A01C00209A9999999999C93F9999E93F71
:104A7000A21C0020A41C0020A61C0020A4010020D1
:104A800006460022DF4B00F0C1FF04460022DE4B49
:104A900000F01BFF80468946DC49886801F001F977
:104AA0000446DB4ADB4B00F0B7FF824642464B46EA
:104AB00000F0B2FFCDE9020101F02EF9D6490860FD
:104AC0000846006801F0EDF804460022D34B01F0DF
:104AD000FBF802D2D248D0490860CF48006801F004
:104AE000E0F804460022CF4B01F002F902D2CE4892
:104AF000C9490860CD48B0F9000001F06EF883465E
:104B0000C2480169584600F012FE824601F0C9F819
:104B100006460022BB4B00F079FF80460022BA4BCC
:104B200000F0D3FE04460D46B849486901F0B9F8D3
:104B30000646B74AB74B00F06FFF22462B46CDE939
:104B4000000100F069FFCDE9020101F0E5F8B84984
:104B500008600846006801F0A4F804460022AF4B44
:104B600001F0B2F802D2AE48B1490860B04800681E
:104B700001F097F804460022AA4B01F0B9F802D2DE
:104B8000A948AB490860AB48B0F9000001F025F82E
:104B900000909E48C169009800F0C9FD019001F0A5
:104BA00080F882460022974B00F030FF0646002234
:104BB000954B00F08AFE04460D469449086A01F0C0
:104BC00070F80646924A934B00F026FF8046224634
:104BD0002B4600F021FFCDE9020101F09DF8964936
:104BE00008600846006801F05CF8044600228B4B20
:104BF00001F06AF802D28A488F4908608E4800683E
:104C000001F04FF804460022864B01F071F802D201
:104C10008548894908608948B0F9000000F0DDFF47
:104C200083467A48816A584600F081FD824601F049
:104C300038F880460022734B00F0E8FE064600225A
:104C4000714B00F042FE04460D467049C86A01F0FF
:104C500028F806466E4A6F4B00F0DEFE22462B46D1
:104C6000CDE9000100F0D8FECDE9020101F054F8D1
:104C7000734908600846006801F013F804460022F2
:104C8000664B01F021F802D265486D4908606C4816
:104C9000006801F006F804460022624B01F028F893
:104CA00002D26148664908605B480068654908604F
:104CB0005F48006848606048006888606048006835
:104CC000C86000206049088042E000205F490880F9
:104CD00032E05F4A5D4B1B8852F82310594A5A4B09
:104CE0001B8852F8230001F03DF820D8584B574A52
:104CF0001288521C53F82210524A534B1B8852F808
:104D0000230001F025F812D2524B504A1288521C4F
:104D100053F822104B4A4C4B1B8852F8230000F0EA
:104D200006FD4849484A128841F822000AE04748EF
:104D30000088401C454908804448008840F28A2188
:104D40008842C6DB00BF40480088401C3E490880BE
:104D50003D4800880428B8DB3A4800683E490860AE
:104D6000084600683D490860084600783C490870DC
:104D70003A48407848703948807888703748C07819
:104D8000C8703048406837490860084600683349B1
:104D90000860084600783249087130484078487108
:104DA0002E48807888712D48C078C8712548806861
:104DB0002D490860084600682849086008460078C0
:104DC00027490872254840784872244880788872BC
:104DD0002248C078C8721B48C06824490860084649
:104DE00000681E490860084600781D4908731B4882
:104DF000407848731948807888731848C078C87319
:104E0000BDE8FF9F00408F4000002AC0A4010020A1
:104E1000145A5A3608AD923F10120020000069C0A3
:104E2000000048C300508440008022440812002043
:104E3000141200200A120020181200200C12002068
:104E40001C1200205C2800206E120020701200202E
:104E5000741200206C020020201200206812002032
:104E6000E820002024120020281200202C1200200C
:104E700008B501210820FCF7C7F84FF48060ADF8B1
:104E8000000002208DF8020014208DF8030069460E
:104E9000E848FBF703FE08BD08B54FF40060ADF825
:104EA000000004208DF8030002208DF802006946FE
:104EB000E048FBF7F3FD08BD08B54FF40060ADF81E
:104EC000000014208DF8030002208DF802006946CE
:104ED000D848FBF7E3FD08BD0F2001E0411EC8B232
:104EE0000028FBD1704710B54FF48061D148FBF723
:104EF00080FE4FF40061CF48FBF77BFEFFF7ECFF2D
:104F00004FF40061CB48FBF776FEFFF7E5FF4FF467
:104F10008061C848FBF76FFEFFF7DEFF10BD10B5DC
:104F20004FF48061C348FBF764FE4FF40061C14851
:104F3000FBF761FEFFF7D0FF4FF40061BD48FBF7C0
:104F400058FEFFF7C9FF4FF48061BA48FBF753FEE4
:104F500010BD10B54FF48061B648FBF74CFEFFF76B
:104F6000BBFF4FF40061B348FBF745FE4FF480618F
:104F7000B048FBF73EFEFFF7AFFF4FF48061AD484E
:104F8000FBF739FEFFF7A8FF10BD10B54FF48061A5
:104F9000A848FBF730FEFFF79FFF4FF40061A548DC
:104FA000FBF727FEFFF798FF4FF48061A148FBF75E
:104FB00020FEFFF791FF4FF480619E48FBF71BFE38
:104FC000FFF78AFF10BD10B54FF480619948FBF7D9
:104FD00012FEFFF781FF4FF480619648FBF709FE50
:104FE000FFF77AFF4FF400619248FBF7E8FD40B10C
:104FF0004FF480618F48FBF7FEFDFFF76DFF002047
:1050000010BD4FF480618B48FBF7F5FDFFF764FF9F
:105010000120F5E770B504460825E9018548FBF74E
:10502000EAFDFFF759FF1DE014F0800F05D04FF4A3
:1050300000618048FBF7DDFD04E04FF400617D482E
:10504000FBF7D9FD4FF480617A48FBF7D2FDFFF7FB
:1050500043FF4FF480617748FBF7CDFDFFF73CFF3E
:105060006006040E2800A5F10101CDB2DCD170BDAF
:1050700070B50825002417E06006040E4FF4806127
:105080006C48FBF7B8FDFFF727FF4FF480616948D4
:10509000FBF7AFFDFFF720FF4FF400616548FBF71A
:1050A0008EFD08B144F001042800A5F10101CDB244
:1050B000E2D14FF480615F48FBF79DFDFFF70CFFE5
:1050C000204670BD2DE9F04104460D4616460027E6
:1050D000B8462F1205F0FF08A02057490870FFF7C7
:1050E000EBFEFFF700FFFFF7E7FE53480078FFF7FE
:1050F00091FFFFF7D1FEFFF766FF10B90120BDE871
:10510000F081FFF7D9FE3846FFF784FFFFF7C4FEB2
:10511000FFF759FF08B90120F1E7FFF7CDFE404640
:10512000FFF778FFFFF7B8FEFFF74DFF08B9012042
:10513000E5E70CE0FFF7C0FE2078FFF76BFFFFF715
:10514000ABFEFFF740FF08B90120D8E7641C300030
:10515000A6F101018EB2EDD1FFF7AEFEFFF7DFFE43
:105160000020CCE72DE9F04105460E461446002705
:10517000B846371206F0FF08A0202F490870FFF745
:105180009BFEFFF7B0FEFFF797FE2B480078FFF776
:1051900041FFFFF781FEFFF716FF10B90120BDE8C0
:1051A000F081FFF789FE3846FFF734FFFFF774FE02
:1051B000FFF709FF08B90120F1E7FFF77DFE404640
:1051C000FFF728FFFFF768FEFFF7FDFE08B9012093
:1051D000E5E7FFF771FEFFF7A2FEFFF76DFEFFF7B1
:1051E00082FEFFF769FE1449097841F00100FFF7DC
:1051F00011FFFFF751FEFFF7E6FE08B90120CEE7E9
:1052000010E0FFF749FEFFF733FF2870FFF754FE69
:10521000012C02D1FFF7B9FE01E0FFF79AFE601EF4
:1052200084B26D1C002CECD1FFF746FEFFF777FE31
:105230000020B4E7000C0140641200202DE9F04783
:105240004F4988694F49096800F0C3FA04464E493E
:1052500000F07EFD13D84A49886900F022FD80469F
:105260004A4A4B4B00F0D8FB06460022494B00F05F
:10527000CDFB044600F050FD4749086012E041486C
:10528000006800F00EFD0646404A414B00F0C4FBAA
:10529000044600223F4B00F0B9FB804600F03CFD85
:1052A0003D49086000213C48006800F051FD02D2F1
:1052B000002039490860324881693248006800F0AE
:1052C00051FD12D82E49886900F0EBFC06462F4AA2
:1052D0002F4B00F0A1FB044600222E4B00F096FB62
:1052E000804600F019FD2C4908602C4800682C49C4
:1052F0000860234988692349096800F06AFA274948
:105300000860274801682548006800F062FA2549CE
:105310000860084601682448006800F060FA064604
:105320001E4801682148006800F059FA07463146D6
:1053300000F0FDF905461E480168284600F04FFAC6
:10534000044615480168204600F0F1F91949086043
:1053500000211848006800F0FBFC02D2002015492B
:10536000086015491348006800F0FCFC02D212489E
:10537000104908600F48006810490860BDE8F087D0
:10538000A4010020281200200000A0400AD7A3702A
:105390003D0AE73F00003440700000207400002008
:1053A000780000207C0000206C00002064000020B9
:1053B000680000208000002000007A448400002063
:1053C00008B501214FF49070FBF71EFE0420ADF8E4
:1053D000000001208DF8020010208DF803006946BE
:1053E000CD48FBF75BFB0A20ADF8000001208DF8EB
:1053F000020010208DF803006946C748FBF74EFBFA
:105400004FF4C050ADF8000001208DF80200482094
:105410008DF803006946C148FBF740FB08BD70B535
:1054200005460C4600265AE0012C04D10821BA4852
:10543000FBF7E1FB0BE0022C04D10821B748FBF796
:10544000DAFB04E04FF48051B348FBF7D4FB00BF14
:1054500000BFE80913D0012C04D10421AE48FBF7AA
:10546000C8FB1FE0022C04D11021AC48FBF7C1FBA4
:1054700018E04FF40051A848FBF7BBFB12E0012CE9
:1054800004D10421A448FBF7B6FB0BE0022C04D1A5
:105490001021A248FBF7AFFB04E04FF400519E48F7
:1054A000FBF7A9FB6806050E00BF00BF012C04D165
:1054B00008219948FBF79DFB0BE0022C04D1082141
:1054C0009648FBF796FB04E04FF480519248FBF7B7
:1054D00090FB00BF00BF00BF00BF701CC6B2082E0B
:1054E000A2DB012C04D104218B48FBF782FB0BE0EB
:1054F000022C04D110218948FBF77BFB04E04FF418
:1055000000518548FBF775FB70BD70B50446012C52
:1055100004D102218048FBF76EFB0BE0022C04D182
:1055200004217E48FBF767FB04E04FF400617A48F2
:10553000FBF761FB002504E000BF00BF00BF681C53
:10554000C5B20A2DF8DB012C04D102217248FBF709
:1055500050FB0BE0022C04D104217048FBF749FBFF
:1055600004E04FF400616C48FBF743FB012C04D1CD
:1055700008216948FBF73DFB0BE0022C04D1082110
:105580006648FBF736FB04E04FF480516248FBF7B6
:1055900030FB002505E02146FF20FFF740FF681C97
:1055A000C5B2042DF7DB70BD70B504460D4685B954
:1055B00021462020FFF733FF21460C20FFF72FFF65
:1055C00021461020FFF72BFF21464420FFF727FF3D
:1055D0000FE021462120FFF722FF21460C20FFF794
:1055E0001EFF21461120FFF71AFF21465420FFF726
:1055F00016FF70BD70B5044600251EE0082147481F
:10560000FBF7F9FA00BF00BFE00904D010214348BE
:10561000FBF7EFFA03E010214048FBF7ECFA6006D5
:10562000040E00BF00BF08213C48FBF7E2FA00BFB0
:1056300000BF00BF00BF681CC5B2082DDEDB102113
:105640003648FBF7D6FA70BD10B52020FFF7D2FF21
:105650000C20FFF7CFFF1020FFF7CCFF5420FFF7FF
:10566000C9FF10BD70B50446002500264FE0012C8F
:1056700004D108212848FBF7BEFA0BE0022C04D124
:1056800008212648FBF7B7FA04E04FF4805122487E
:10569000FBF7B1FA00BF00BF4FF6FF7000EA450507
:1056A000012C07D1E1021D48FBF789FAA0B1681C63
:1056B00085B211E0022C07D120211848FBF77FFAB0
:1056C00050B1681C85B207E04FF480411248FBF7E7
:1056D00076FA08B1681C85B200BF00BF012C04D166
:1056E00008210D48FBF785FA0BE0022C04D10821B4
:1056F0000A48FBF77EFA04E04FF480510648FBF7B6
:1057000078FA00BF00BF00BF00BF701CC6B2102EE9
:10571000ADDB284670BD00000014014000200140B0
:10572000421C10F8011B0029FBD1801A7047F0B40D
:1057300080EA0102D40F4200B2EB410F02D20246CE
:10574000084611464A0042D0C30DDDB2C1F3C7522C
:10575000AD1A202D35DAC1F3160141F4000204B16F
:105760005242C5F1200602FA06F12A411044B3EB79
:10577000D05F23D0C4B1012DA0EBC35009DCF0BC35
:105780004FF0004202EAC35200F50000DBB200F025
:105790002DBB400000F1807000EBC350A0F1807081
:1057A00040EAD170490009E0490841EAC071A0EB24
:1057B000C35000F50000400800EBC350F0BC00F0FF
:1057C0000CBB6142012202EB4101001BF6E7F0BC79
:1057D000704781F00041AAE780F00040A7E780EA27
:1057E000010210B502F00043400026D04A0023D049
:1057F0004FEA106101EB1261C0F35600C2F356028A
:1058000040F4000042F40002A0FB0220A1F17F015D
:105810004FEA0040140401D000F1010050EA1240A8
:1058200001D44000491EC2B20C0604EBD010401C4B
:105830004008802A02D003E0002010BD20F00100C3
:10584000002900DA0020184310BD30B480EA0102BC
:1058500002F0004530F0004221F0004015D0A0B128
:10586000C0F3C753C2F3C754C2F31601C0F3160006
:10587000E41A41F4000140F400027D34914201D366
:10588000641C00E04900002C02DA30BC00207047A4
:105890004FF400000023914201D3891A03434008CA
:1058A0004FEA4101F7D151B1914202D14FF000418D
:1058B00005E002D24FF0010101E06FF0010103EBBE
:1058C000C450284430BC00F088BA2DE9FE4F804611
:1058D00081EA0300C00F0C46009021F0004123F044
:1058E0000045B8EB0200A94105D24046214690464A
:1058F0001C460B46024623F00040104304D14046AC
:10590000214603B0BDE8F08F270DC7F30A00C3F3AB
:105910000A510290401A0190402866DAC3F313003E
:1059200040F4801B0098924620B10023D2EB030A7A
:1059300063EB0B0B01985946C0F14002504600F052
:105940001BFA06460D4650465946019A00F033FAB6
:1059500010EB08006141002487EA115284EAE773E2
:105960001A433BD0009A3AB3019A012A4FEA0752F0
:1059700010DC001B61EB02014FF0004202EA07520B
:10598000CDE90042001C41F5801132462B4600F063
:1059900067FAB6E7001B61EB0201001C41F58013BA
:1059A00000185B412018A2F5001747EB030140EAFD
:1059B000D570B6196D4111E06D084FEA360645EA1B
:1059C000C0754FEA0752001B61EB0201001C41F554
:1059D000801149084FEA30000019514132462B46E8
:1059E00003B0BDE8F04F00F02EBA0098012240004D
:1059F0000023D0EB020263EBE073009821464FEAEC
:105A0000E074B8EB000061EB0401E9E783F00043C8
:105A10005BE781F0004158E72DE9FE4F81EA03047E
:105A200004F0004421F0004100944FF0000B23F0FB
:105A3000004350EA010402D052EA030404D10020DA
:105A4000014603B0BDE8F08FC3F30A54C1F30A5511
:105A50002C44A4F2F3340194A0FB0254C1F31301CB
:105A600041F48011C3F3130343F4801301FB024498
:105A700000FB034E840A970A44EA815447EA83579D
:105A8000A4FB076802958D0A05FB07854FEA932C56
:105A900004FB0C542705029D4FEA065847EA1637C7
:105AA000B5EB08056EEB070C870E920E47EA8117DF
:105AB00042EA8312A7FB0201B6EB0B0164EB000480
:105AC0002B0D43EA0C335E1844EB1C50DA4651466A
:105AD000E7FB0201C5F313044FEA0B3343EA145307
