:020000040800F2
:100000000812002001010008291D00082B1D00080E
:100010002F1D0008331D0008371D000800000000D8
:100020000000000000000000000000003B1D000870
:100030003D1D0008000000003F1D0008411D000894
:100040001B0100081B0100081B0100081B01000820
:100050001B0100081B0100081B0100081B01000810
:100060001B0100081B0100081B0100081B01000800
:100070001B0100081B0100081B0100081B010008F0
:100080001B0100081B0100081B0100081B010008E0
:100090001B0100081B0100081B0100081B010008D0
:1000A0001B0100081B0100081B0100081B010008C0
:1000B0001B0100081B010008431D00081B0100086C
:1000C0001B0100081B0100081B0100081B010008A0
:1000D0001B0100081B0100081B0100081B01000890
:1000E0001B0100081B0100081B010008DFF80CD0F1
:1000F00003F0F4F800480047171C0008081200201D
:100100000648804706480047FEE7FEE7FEE7FEE7B1
:10011000FEE7FEE7FEE7FEE7FEE7FEE70302000874
:10012000ED0000080CB50020019000906C480068BC
:1001300040F480306A49086000BF6948006800F4F4
:10014000003000900198401C0190009818B9019867
:10015000B0F5A06FF1D16248006800F4003010B132
:100160000120009001E0002000900098012843D178
:100170005C48006840F010005A4908600846006872
:1001800020F0030008600846006840F002000860A4
:1001900053484068524948600846406848600846ED
:1001A000406840F4806048600846406820F47C1055
:1001B00048600846406840F4E81048600846006817
:1001C00040F08070086000BF4548006800F0007093
:1001D0000028F9D04248406820F0030040494860B8
:1001E0000846406840F00200486000BF3C48406854
:1001F00000F00C000828F9D10CBD10B5FFF792FFF4
:1002000010BD10B53648006840F001003449086060
:10021000084640683449084031494860084600684B
:10022000324908402E4908600846006820F48020C2
:1002300008600846406820F4FE0048604FF41F0044
:100240008860FFF7DAFF4FF000602949086010BDB1
:1002500010B5002100200022214B5B6803F00C0147
:1002600021B1042906D0082928D107E0214B224CCE
:10027000236027E01F4B204C236023E0184B5B6872
:1002800003F47010164B5B6803F48032022303EB17
:10029000904022B9194B4343174C23600DE0104B9B
:1002A0005B6803F4003323B1144B4343124C2360C7
:1002B00003E0104B4343104C236003E00D4B0E4C06
:1002C000236000BF00BF064B5B68C3F303130C4CF5
:1002D000E15C094B1B68CB40074C236010BD00005C
:1002E00000100240002002400000FFF8FFFFF6FE71
:1002F00008ED00E000127A000000002000093D0037
:100300000400002031490143314A1160704770B543
:10031000002100230F22C47804B32D4C246804F478
:10032000E064C4F5E064210AC1F10403CA404478E2
:1003300004FA03F18478144021430901254C06781E
:10034000A155047804F01F050124AC4005786D1117
:10035000AD0005F1E025C5F8004109E0047804F09E
:100360001F050124AC401C4D0678761145F8264047
:1003700070BD1A4A0A400243154B1B1F1A60704792
:1003800039B1134A121D12680243114B1B1D1A602A
:1003900006E00F4A121D126882430D4B1B1D1A60A6
:1003A0007047042808D14FF0E021096941F00401A9
:1003B0004FF0E022116107E04FF0E021096921F0E0
:1003C00004014FF0E0221161704700000000FA05BF
:1003D0000CED00E000E400E080E100E080FFFF1FA2
:1003E00010B50446CC48844208D10121042000F015
:1003F0002DFB0021042000F029FB46E0C748844281
:1004000008D10121082000F021FB0021082000F084
:100410001DFB3AE0C248844208D10121102000F0BF
:1004200015FB0021102000F011FB2EE0BD48844296
:1004300008D10121202000F009FB0021202000F03C
:1004400005FB22E0B848844208D10121402000F099
:10045000FDFA0021402000F0F9FA16E0B34884428A
:1004600008D10121802000F0F1FA0021802000F065
:10047000EDFA0AE0AE48844207D10121801500F070
:10048000E5FA0021A01500F0E1FA10BD10B5012138
:10049000084600F0DBFA0021012000F0D7FA10BD79
:1004A0002DE9F0410246002500260020002300240B
:1004B000002791F803C00CF00F0591F803C00CF071
:1004C000100CBCF1000F03D091F802C04CEA0505F6
:1004D00091F800C0BCF1000F31D0146800202BE06F
:1004E0004FF0010C0CFA00F3B1F800C00CEA03065F
:1004F0009E4220D183004FF00F0C0CFA03F7BC434F
:1005000005FA03FC4CEA040491F803C0BCF1280F7F
:1005100006D14FF0010C0CFA00FCC2F814C00AE03E
:1005200091F803C0BCF1480F05D14FF0010C0CFA53
:1005300000FCC2F810C0401C0828D1D31460B1F8E8
:1005400000C0BCF1FF0F34DD546800202EE000F144
:10055000080C4FF0010808FA0CF3B1F800C00CEADF
:1005600003069E4221D183004FF00F0C0CFA03F7D3
:10057000BC4305FA03FC4CEA040491F803C0BCF147
:10058000280F05D100F1080C08FA0CF8C2F8148005
:1005900091F803C0BCF1480F07D100F1080C4FF0EF
:1005A000010808FA0CF8C2F81080401C0828CED3C5
:1005B0005460BDE8F0814FF6FF7101800221817027
:1005C0000421C17070470246002093680B400BB1B4
:1005D000012000E0002070470146886880B2704723
:1005E00002460020D3680B400BB1012000E0002040
:1005F00070470146C86880B2704701617047416129
:1006000070470AB1016100E041617047C160704705
:100610004FF480320A43826181618261826982691A
:10062000704702460020434B18684FF6807318400D
:1006300040EA021008433F4B186070473E49C861CA
:100640007047F0B50A46002300240021002500F081
:100650000046B6F1004F02D1364EF16901E0354E49
:100660007168C0F3034583B200F44016B6F5401F2D
:1006700008D121F070612F4E766826F070662D4FFC
:100680007E6012E000F48016B6F5801F06D10326C6
:1006900006FA05F4A14341F0706106E0460D36010B
:1006A00003FA06F6B14341F0706122B1460D3601FE
:1006B00003FA06F6314300F00046B6F1004F02D1CE
:1006C0001C4EF16101E01B4E7160F0BD30B500229F
:1006D0008B071C0F0F2303FA04F2164B08338C1000
:1006E00053F824309343134C08348D1044F82530CC
:1006F00023468C1053F824308C07240F00FA04F49E
:1007000023430C4C08348D1044F8253030BD0A4981
:10071000DC3108607047000000080140000C014017
:10072000001001400014014000180140001C01406D
:10073000002001400000014000002042DF48006826
:1007400040F00100DD49086008464068DC49084087
:10075000DA49486008460068DA490840D749086025
:100760000846006820F4802008600846406820F4AD
:10077000FE0048604FF41F0088607047CF49096849
:1007800021F48031CD4A11601146096821F480219D
:100790001160B0F5803F03D0B0F5802F0ED106E098
:1007A000C649096841F48031C44A116007E0C34971
:1007B000096841F4A021C14A116000E000BF00BFF8
:1007C000704710B501460022002300204A11012A7B
:1007D00002D1BA4C236806E0022A02D1B74C236A40
:1007E00001E0B64C636A01F01F02012494401C40F2
:1007F0000CB1012000E0002010BD38B500200090B1
:100800000024002500BF3120FFF7DBFF05460098DC
:10081000401C00900098B0F5A06F01D0002DF2D0E0
:100820003120FFF7CEFF08B1012400E0002420466C
:1008300038BD01460020A14A106820F0F80040EAC7
:10084000C10010607047A049086070470246002050
:100850009A4B586820F47C1042EA01031843974BE6
:100860005860704798490866704701460020934ACF
:10087000506820F003000843506070478F4840687C
:1008800000F00C007047014600208C4A506820F0B0
:10089000F00008435060704701460020874A5068C6
:1008A00020F4E06008435060704701460020834A0E
:1008B000506820F4605040EAC1005060704729B190
:1008C0007E4A527A02437D4B5A7204E07B4A527A46
:1008D00082437A4B5A7270477B49D831086070471F
:1008E00001460020754A506820F44040084350609B
:1008F00070470021714A20321170704A82F820102E
:10090000012802D004280AD104E001216B4A2032D8
:10091000117005E00521694A2032117000E000BF26
:1009200000BF70476949086070476449096A01431C
:10093000624A11627047654944390860704730B5B2
:1009400000210022002400235C4D6D6805F00C019D
:1009500021B1042905D0082923D105E05C4D0560AB
:1009600022E05B4D05601FE0544D6D6805F4701288
:10097000524D6D6805F48034022505EB92421CB996
:10098000544D554305600BE04C4D6D6805F4003542
:100990001DB1504D5543056002E04D4D5543056076
:1009A00002E04B4D056000BF00BF444D6D6805F08F
:1009B000F0010909484D6B5C0568DD4045603F4D1D
:1009C0006D6805F4E061090A434D6B5C4568DD40E4
:1009D00085603A4D6D6805F46051C90A3E4D6B5C07
:1009E0004568DD40C560354D6D6805F44041890BB3
:1009F0003A4D6B5CC568B5FBF3F5056130BD29B1B7
:100A00002E4A526902432D4B5A6104E02B4A526927
:100A100082432A4B5A61704729B1284A926902439E
:100A2000264B9A6104E0254A92698243234B9A61DE
:100A3000704729B1214AD2690243204BDA6104E0B0
:100A40001E4AD26982431D4BDA61704729B11B4AA5
:100A5000D2680243194BDA6004E0184AD268824334
:100A6000164BDA60704729B1144A12690243134BDE
:100A70001A6104E0114A12698243104B1A617047EF
:100A800012494039086070470F49C86470470B49E4
:100A9000C87170470948406A40F080700749486251
:100AA000704701460020054A92680A400AB10120B9
:100AB00000E0002070470149887270470010024032
:100AC0000000FFF8FFFFF6FE0000424280044242B1
:100AD00000127A0000093D001400002024000020CC
:100AE00010B50446FE48844208D10121C014FFF726
:100AF000ADFF0021E014FFF7A9FFC4E0B4F1804F7F
:100B000008D101210846FFF7AEFF00210120FFF7C1
:100B1000AAFFB8E0F348844208D101210220FFF780
:100B2000A2FF00210220FFF79EFFACE0EE488442C6
:100B300008D101210420FFF796FF00210420FFF7D0
:100B400092FFA0E0E948844208D101210820FFF784
:100B50008AFF00210820FFF786FF94E0E4488442E2
:100B600008D101211020FFF77EFF00211020FFF7A0
:100B70007AFF88E0DF48844208D101212020FFF776
:100B800072FF00212020FFF76EFF7CE0DA488442EC
:100B900008D101214014FFF759FF00216014FFF72D
:100BA00055FF70E0D548844209D10121C804FFF700
:100BB0004DFF00214FF40020FFF748FF63E0D048CD
:100BC000844209D101210805FFF740FF00214FF4BD
:100BD0008010FFF73BFF56E0CA48844209D101214B
:100BE0004805FFF733FF00214FF40010FFF72EFFF9
:100BF00049E0C548844208D101214020FFF733FF76
:100C000000214020FFF72FFF3DE0C048844208D17B
:100C100001218020FFF727FF00218020FFF723FF1D
:100C200031E0BB48844208D101218015FFF71BFF4A
:100C30000021A015FFF717FF25E0B648844209D12F
:100C400001210804FFF702FF00214FF48030FFF775
:100C5000FDFE18E0B048844209D101214804FFF7A5
:100C6000F5FE00214FF40030FFF7F0FE0BE0AB483B
:100C7000844208D101218804FFF7E8FE00214FF4E7
:100C80008020FFF7E3FE10BD00220288944B9842BB
:100C90000ED0994B98420BD0B0F1804F08D0914BB9
:100CA000984205D0904B984202D0904B984204D184
:100CB0004FF68F731A404B881A438D4B984207D0DA
:100CC0008C4B984204D04FF6FF431A40CB881A430E
:100CD00002808B8883850B880385814B98420BD0DB
:100CE000854B984208D08B4B984205D08A4B98424E
:100CF00002D08A4B984201D10B7A0386012383826A
:100D0000704770B5002400220023058C4FF6FE7654
:100D100035400584028C8388048B4FF68F752C40F8
:100D2000B51E2C400D882C43751E2A400D892A4380
:100D30004D882A436A4DA8420BD06F4DA84208D077
:100D4000744DA84205D0744DA84202D0734DA842FC
:100D500013D14FF6F7752A404D892A434FF6FB759C
:100D60002A408D882A434FF6FF652B404FF6FF55EA
:100D70002B408D892B43CD892B4383800483CD88E1
:100D80008586028470BD70B5002400220023058C86
:100D90004FF6EF7635400584028C8388048B48F645
:100DA000FF752C404FF6FF452C400D884FF6FF761F
:100DB00006EA05252C434FF6DF752A400D8906EA21
:100DC00005152A434D8806EA05152A43444DA842D5
:100DD00002D0494DA8421DD14FF67F752A404D895A
:100DE0004FF6FF7606EA05152A434FF6BF752A40EF
:100DF0008D8806EA05152A434FF6FF352B404FF242
:100E0000FF752B408D8906EA85052B43CD8906EABF
:100E100085052B4383800483CD880587028470BDBC
:100E200070B5002400220023058C4FF6FF66354084
:100E30000584028C8388848B4FF68F752C404FF687
:100E4000FC752C400D882C434FF6FF552A400D8928
:100E50004FF6FF7606EA05252A434D8806EA052562
:100E60002A431F4DA84202D0234DA8421DD14FF264
:100E7000FF752A404D894FF6FF7606EA05252A437D
:100E80004FF6FF352A408D8806EA05252A434EF69F
:100E9000FF752B404DF6FF752B408D8906EA051531
:100EA0002B43CD8906EA05152B4383808483CD88A7
:100EB0008587028470BD70B5002200230024058C54
:100EC0004EF6FF7635400584038C8488828B48F685
:100ED000FF752A404FF6FF452A400D8820E00000AC
:100EE000002C01400004004000080040000C0040BD
:100EF000001000400014004000340140004C01404C
:100F0000005001400054014000180040001C004007
:100F100000200040004001400044014000480140E2
:100F20004FF6FF7606EA05252A434DF6FF752B405E
:100F30000D8906EA05352B434D8806EA05352B4316
:100F4000FA4DA84202D0FA4DA84208D14BF6FF75DF
:100F50002C408D894FF6FF7606EA85152C43848058
:100F60008283CD88A0F84050038470BD828B4FF2FD
:100F7000FF331A408283828B4FF6FF7303EA01230B
:100F80001A4382837047F0B50C46154600220021B3
:100F90000026078C4EF6FF7C07EA0C070784828B3D
:100FA000018C4FF6FF7707EA043640F6FF473A40D8
:100FB0004FF6FF7707EA05273A434FF6FF7707EA30
:100FC00003373A43D94FB8420ED0D94FB8420BD06D
:100FD000B0F1804F08D0D74FB84205D0D64FB842B5
:100FE00002D0D64FB84206D14DF6FF77394046F4CD
:100FF0008057394305E047F6FF57394044F480579E
:10100000394382830184F0BD828B4FF6F3731A401B
:101010008283828B0A4382837047F0B50C46154663
:10102000002200210026078C4FF6FF6C07EA0C0710
:101030000784828B018C4FF6FF7707EA04264FF670
:101040000C773A404FF6FF7707EA03172F433A43EE
:10105000B64FB8420ED0B64FB8420BD0B0F1804F69
:1010600008D0B44FB84205D0B34FB84202D0B34F06
:10107000B84206D14FF6FF57394046F480773943DE
:1010800005E04FF2FF57394044F4807739438283BB
:101090000184F0BD028B4FF2FF331A400283028BB2
:1010A0004FF6FF7303EA01231A4302837047F0B53A
:1010B0000C461546002200210026078C4FF6EF7CD7
:1010C00007EA0C070784028B018C4FF6FF7707EACB
:1010D000041640F6FF473A404FF6FF7707EA03371A
:1010E0003A434FF6FF7707EA05273A438F4FB84256
:1010F0000ED08F4FB8420BD0B0F1804F08D08D4F3B
:10110000B84205D08C4FB84202D08C4FB84206D1BD
:101110004FF6DF77394046F01007394305E04FF6C8
:101120005F77394044F01007394302830184F0BDF2
:10113000028B4FF6F3731A400283028B0A43028339
:101140007047F0B50C46154600220021068C4FF67C
:10115000FE773E400684028B018C4FF60C763240BF
:101160007E1C06EA03162E433243704EB0420ED068
:101170006F4EB0420BD0B0F1804F08D06D4EB042F0
:1011800005D06D4EB04202D06C4EB04206D14FF643
:10119000FD76314044F00106314305E04FF6F57627
:1011A000314044F00106314302830184F0BD70B543
:1011B00005460C465D4885420ED05D4885420BD001
:1011C000B5F1804F08D05B48854205D05A4885422A
:1011D00002D05A48854200D100E000BF208850B9B3
:1011E0002389A28861882846FFF7ABFFE18828465B
:1011F000FFF79EFF25E0208804280AD12389A288D2
:1012000061882846FFF753FFE1882846FFF742FF31
:1012100017E0208808280AD12389A28861882846F7
:10122000FFF7FBFEE1882846FFF7EEFE09E0238981
:10123000A28861882846FFF7A6FEE1882846FFF7C6
:1012400095FE70BD2DE9F04105460C4600260127AC
:10125000608808B9022600E00026A088012801D194
:10126000022700E001272088A0B92389A28861888D
:101270002846FFF766FFE1882846FFF759FF2389D4
:101280003A4631462846FFF712FFE1882846FFF725
:1012900001FF13E02389A28861882846FFF707FF32
:1012A000E1882846FFF7F6FE23893A46314628466C
:1012B000FFF747FFE1882846FFF73AFFBDE8F081D6
:1012C0000A884B881A438B881A43CB881A430B89A8
:1012D0001A434B891A438B891A43A0F8442070475C
:1012E0004FF6FF71818000210180C1804180017231
:1012F00070470021018041808180C180018141814E
:101300008181C1817047002101804180012181805C
:101310000021C180018170470021018041808180CE
:10132000C18001814181818170470000002C014012
:10133000003401400004004000080040000C004060
:1013400021B1028842F00102028004E002884FF6D7
:10135000FE731A400280704731B1B0F8442042F465
:101360000042A0F8442005E0B0F84420C2F30E0289
:10137000A0F8442070471AB183890B43838102E0AF
:1013800083898B43838170478182704741EA0203DE
:10139000A0F8483070471AB183890B43838102E07B
:1013A00083898B438381704701894FF6F87211401E
:1013B000018170470A46002101894FF68F73194059
:1013C00011430181704730B504460D462946204639
:1013D000FFF7F0FF208940F00700208130BD2DE9A4
:1013E000F04104460D4616461F46602D06D13B4689
:1013F000012231462046FFF75AFE05E03B46012216
:1014000031462046FFF79DFE29462046FFF7D2FFD2
:10141000208940F007002081BDE8F08130B50C46FE
:1014200000210189C9B24FF6FF7505EA032515436E
:1014300025432943018130BD2DE9F04105460E4683
:1014400017469846002443463A4631462846FFF759
:10145000E5FF2C894FF6F870044044F007044FF67E
:101460008F70044044F070042C81BDE8F081F0B529
:1014700004460D4616461F463B4632462946204640
:10148000FFF7CCFF208940F480402081F0BD01852A
:10149000828270470A46002101884FF68F731940F7
:1014A000114301807047F0B50C4615461E460021D9
:1014B000002200230189028B038C4FF6F877394014
:1014C00021434FF6FC473A4040F201173A434FF6AA
:1014D000DD773B404FF6FF7707EA06172F433B4384
:1014E000018102830384F0BD0A460021018B4FF67F
:1014F0008F7319401143018370470A460021018B05
:1015000048F6FF7319404FF6FF7303EA02231943AD
:10151000018370470A460021818B4FF68F73194073
:101520001143818370470A460021818B48F6FF737F
:1015300019404FF6FF7303EA022319438183704772
:1015400021B1028842F08002028004E002884FF656
:101550007F731A400280704721B1828842F00402F2
:10156000828004E082884FF6FB731A4082807047C5
:1015700021B1828842F00802828004E082884FF61E
:10158000F7731A408280704721B1828842F00102CD
:10159000828004E082884FF6FE731A408280704792
:1015A0000A460021018B4FF6F7731940114301835E
:1015B00070470A460021018B4FF2FF7319404FF626
:1015C000FF7303EA02231943018370470A4600218F
:1015D000818B4FF6F77319401143818370470A4698
:1015E0000021818B4FF2FF7319404FF6FF7303EA1E
:1015F00002231943818370470A460021018B4FF66D
:10160000FB7319401143018370470A460021018B87
:101610004FF6FF3319404FF6FF7303EA02231943D5
:10162000018370470A460021818B4FF6FB731940F6
:101630001143818370470A460021818B4FF6FF33A7
:1016400019404FF6FF7303EA022319438183704761
:101650000A460021018B4FF67F7319401143018325
:1016600070470A460021018BC1F30E014FF6FF734C
:1016700003EA02231943018370470A460021818B44
:101680004FF67F7319401143818370470A4600214A
:10169000818BC1F30E014FF6FF7303EA0223194356
:1016A000818370470A460021018C4FF6FD73194073
:1016B0001143018470470A460021018C4FF6F773ED
:1016C00019401143018470470A460021018C4FF6EE
:1016D000DF7319404FF6FF7303EA021319430184C5
:1016E00070470A460021018C4FF67F7319404FF670
:1016F000FF7303EA02131943018470470A4600216D
:10170000018C4FF6FF5319404FF6FF7303EA022393
:101710001943018470470A460021018C4FF2FF7380
:1017200019404FF6FF7303EA0223194301847047FF
:101730000A460021018C4DF6FF7319404FF6FF73E6
:1017400003EA023319430184704730B500230124B2
:101750008C40A3B2048C9C430484048C02FA01F5EF
:10176000ADB22C43048430BD30B5002304248C403A
:10177000A3B2048C9C430484048C02FA01F5ADB23C
:101780002C43048430BD70B5034600200024184665
:10179000183001258D40ACB21D8CA5431D8409B1C4
:1017A000082909D100EB6100056825F07005056086
:1017B0000568154305600EE00D1FC5F34E0528446E
:1017C000056825F4E045056005684FF6FF7606EAF2
:1017D00002263543056070BD21B1028842F0020245
:1017E000028004E002884FF6FD731A4002807047C1
:1017F00021B1028842F00402028004E002884FF620
:10180000FB731A400280704721B1828842F0800247
:10181000828004E082884FF67F731A40828070478E
:1018200002884FF6F7731A40028002880A4302804A
:10183000704782884FF68F731A40828082880A43ED
:101840008280704702894FF6F8731A40028102893C
:101850000A430281704702894FF67F731A40028162
:1018600002890A43028170478184704781857047ED
:10187000818670470187704781877047A0F84010C4
:10188000704702884FF6FF431A40028002880A43DD
:10189000028070470146888E70470146088F704766
:1018A0000146888F70470146B1F8400070470146F5
:1018B000888C70470146088D704702460020138AC5
:1018C0000B400BB1012000E000207047CA430282A8
:1018D000704730B50246002000230024158A05EA2F
:1018E0000103958905EA010413B10CB1012000E060
:1018F000002030BDCA4302827047000038B504465C
:10190000102002230090F84802780021142000F0F3
:10191000C5FD102002230090F448027800215820D1
:1019200000F0BCFD102002230090F1480278032152
:10193000142000F0B3FD102002230090ED4802783F
:101940000321582000F0AAFD102002230090EA484D
:1019500002780621142000F0A1FD1020022300903F
:10196000E64802780621582000F098FD062C28D27F
:10197000DFE804F003284D7297BC10232A220021CF
:10198000282000F0F4FC1023202200216C2000F01D
:10199000EEFC102320220321282000F0E8FC102375
:1019A000202203216C2000F0E2FC102320220621DB
:1019B000282000F0DCFC1023202206216C2000F0FF
:1019C000D6FCB8E0102320220021282000F0CFFC14
:1019D00010232A2200216C2000F0C9FC10232022B1
:1019E0000321282000F0C3FC1023202203216C20B7
:1019F00000F0BDFC102320220621282000F0B7FCB7
:101A00001023202206216C2000F0B1FC93E010236B
:101A100020220021282000F0AAFC102320220021EF
:101A20006C2000F0A4FC10232A220321282000F0BF
:101A30009EFC1023202203216C2000F098FC102330
:101A400020220621282000F092FC102320220621CB
:101A50006C2000F08CFC6EE0102320220021282056
:101A600000F085FC1023202200216C2000F07FFC78
:101A7000102320220321282000F079FC10232A22A1
:101A800003216C2000F073FC102320220621282063
:101A900000F06DFC1023202206216C2000F067FC72
:101AA00049E0102320220021282000F060FC1023B0
:101AB000202200216C2000F05AFC10232022032158
:101AC000282000F054FC1023202203216C2000F079
:101AD0004EFC10232A220621282000F048FC102367
:101AE000202206216C2000F042FC24E0102320225A
:101AF0000021282000F03BFC1023202200216C2034
:101B000000F035FC102320220321282000F02FFCB8
:101B10001023202203216C2000F029FC1023202216
:101B20000621282000F023FC10232A2206216C2005
:101B300000F01DFC00BF00BF38BD38B504461020C2
:101B4000022300906E48027803212C2000F0A6FCAE
:101B50001020022300906B4802780321442000F0FB
:101B60009DFC1F220321682000F003FD64480078DB
:101B70000A2805DA1023302203212C2000F0F7FB7D
:101B8000604800780A2805DA102330220321442017
:101B900000F0EDFB24B1012C15D0022C39D125E049
:101BA00010232A220521302000F0E1FB10232022FF
:101BB0000521482000F0DBFB1023202205216C20AA
:101BC00000F0D5FB25E0102320220521302000F075
:101BD000CEFB10232A220521482000F0C8FB102349
:101BE000202205216C2000F0C2FB12E010232022ED
:101BF0000521302000F0BBFB1023202205214820C6
:101C000000F0B5FB10232A2205216C2000F0AFFB69
:101C100000BF00BF38BD00F003FA00F083F901F007
:101C20000DFB01F03FFB00F0E4F900F049FF00F08C
:101C30005BFD00F05EFB642000F02FFA01F0F2FA89
:101C400050E0C82000F029FA00F03AFF01F076F8E1
:101C50002D48007830B12D492D4801F0B7FA002009
:101C6000294908702B480078B0B12B48007898B902
:101C70002A48007922490978884209D127484079C1
:101C800020490978884203D101202549087006E0DF
:101C900000202349087002E00020214908704FF419
:101CA00000412048FEF78FFC98B90A2000F0F5F9B2
:101CB0004FF400411B48FEF786FC50B900BF4FF4BB
:101CC00000411848FEF77FFC0028F8D00120124997
:101CD0000870124840790B490978884202D00020E8
:101CE0000D490870ADE700004809002049090020AF
:101CF0004A0900204B0900204C0900204D09002012
:101D000051090020520900205C0900205E090020D2
:101D10005D09002053090020580900206C090020AB
:101D200054090020000C0140704700BFFEE700BFCF
:101D3000FEE700BFFEE700BFFEE770477047704751
:101D4000704710B501216A48FFF7C3FD18B10121A2
:101D50006748FFF7CFFD00BF66480088401C654913
:101D6000088008460088C82804DB0020088001207D
:101D7000614908706148007800283DD060480088BB
:101D8000401C5F49088008460088B0F5967F01DB5B
:101D9000002008805A4800880A2817DD5848008823
:101DA0001E2803DB5648008828280FDD5448008889
:101DB0003C2803DB52480088462807DD504800884D
:101DC0005A280EDB4E48008864280ADC4FF4804114
:101DD0004C48FEF712FC4FF480714B48FEF70FFCA5
:101DE00012E04FF480414748FEF709FC4FF4807140
:101DF0004548FEF702FC07E00020414908804FF407
:101E000080714148FEF7F9FB40480088401C3F497B
:101E1000088008460088642801DB002008803C48D0
:101E200000781E280BDA3A480078142807DD394874
:101E30000078462803DA374800780A280FDC36484D
:101E40000088401C3449088008460088B0F5FA7FB5
:101E50000ADB0020088001203049087004E00020DF
:101E60002D4908802D4908702C48007858B32C481B
:101E70000088401C2A49088008460088B0F5967FF3
:101E800001DB00200880264800880A280FDD24484E
:101E900000881E2803DB22480088282807DD204808
:101EA00000883C2809DB1E480088462805DC4FF4E2
:101EB00000711548FEF7A3FB0DE04FF400711248C6
:101EC000FEF79BFB07E00020154908804FF40071E6
:101ED0000D48FEF792FB0948007838B90F480078A2
:101EE00020B94FF480410748FEF789FB10BD000080
:101EF000000800405A0900205C0900205409002015
:101F00005609002000100140000801406609002029
:101F10005D0900205E0900206009002062090020A0
:101F20006409002008B501211420FEF775FD4FF467
:101F30000070ADF8000003208DF8020010208DF82D
:101F4000030069461448FEF7ABFA4FF48070ADF811
:101F5000000003208DF8020010208DF80300694670
:101F60000D48FEF79DFA4FF40050ADF80000032035
:101F70008DF8020010208DF8030069460748FEF72F
:101F80008FFA4FF480710448FEF737FB4FF400716D
:101F90000148FEF732FB08BD000801400010014077
:101FA0000EB501210420FEF744FD1C48FEF798FD04
:101FB0001A48FFF7F9F94720ADF8000042F20F7018
:101FC000ADF804000020ADF80600ADF80200694647
:101FD0001248FEF759FE01211048FFF777FC012255
:101FE00011460E48FFF7C7F901210C48FFF7A8F981
:101FF0000EBD08B54FF4E060FEF784F91E208DF8A1
:10200000000000208DF8010001208DF802008DF8FD
:1020100003006846FEF77BF908BD00000008004099
:1020200010B56FF00400FEF7BCF92E4800682E4989
:10203000B0FBF1F02D4908700846007800EB400134
:10204000C1EBC0104FF6FF7101EAC00028490880BB
:1020500010BD0146254A12784A434FF0E0235A61E9
:1020600000229A611A46126942F001021A6100BF09
:102070004FF0E022106900F001021AB100F4803242
:10208000002AF5D04FF0E022126922F001024FF051
:10209000E0231A6100229A6170470146144A1288AF
:1020A0004A434FF0E0235A6100229A611A461269AE
:1020B00042F001021A6100BF4FF0E022106900F007
:1020C00001021AB100F48032002AF5D04FF0E0226C
:1020D000126922F001024FF0E0231A6100229A6196
:1020E000704700000000002000127A0068090020FC
:1020F0006A09002010B54FF40071FE48FEF77DFA22
:102100004FF48071FB48FEF778FA4FF48071F9487C
:10211000FEF775FA4FF40071F648FEF770FA10BD3D
:1021200010B54FF40071F348FEF767FA4FF4807171
:10213000F048FEF764FA4FF48071EE48FEF75DFA5E
:1021400010BD10B54FF40071EA48FEF756FA4FF48F
:102150000071E848FEF753FA10BD2DE9F04105463D
:102160002C464FF40071E348FEF749FA00261CE0C4
:10217000274607F08007802F04D17900DD48FEF75D
:102180003CFA04E04FF48071DA48FEF738FA600652
:10219000040E4FF40071D748FEF72FFA4FF4007188
:1021A000D448FEF72CFA701CC6B2082EE0DBBDE85E
:1021B000F08110B50446FFF79DFF7820FFF7CDFFB3
:1021C000FFF7BFFF0020FFF7C8FFFFF7BAFF204669
:1021D000FFF7C3FFFFF7B5FFFFF7A2FF10BD10B574
:1021E0000446FFF787FF7820FFF7B7FFFFF7A9FF47
:1021F0004020FFF7B2FFFFF7A4FF2046FFF7ADFF37
:10220000FFF79FFFFFF78CFF10BD70B504460D462A
:102210001DB1E0B2FFF7E3FF02E0E0B2FFF7C9FF54
:1022200070BD70B50646002418E004F1B00000212E
:10223000FFF7EBFF00210846FFF7E7FF0021102022
:10224000FFF7E3FF002505E001213046FFF7DDFF42
:10225000681CC5B2802DF7DB601CC4B2082CE4DB1F
:1022600070BD06E041F6650100E0491E0029FCD181
:10227000401E0028F6D17047014605E0002001E02D
:10228000421CD0B27B28FBDB0A1EA1F10101F5D173
:10229000704770B504460D4605F1B0000021FFF708
:1022A000B4FF102141EA14100021FFF7AEFF04F043
:1022B0000F000021FFF7A9FF70BD10B500218D2090
:1022C000FFF7A3FF00211420FFF79FFF0021AF209D
:1022D000FFF79BFF10BD10B500218D20FFF795FF84
:1022E00000211020FFF791FF0021AE20FFF78DFFA6
:1022F00010BD70B5002418E004F1B0000021FFF714
:1023000084FF00210846FFF780FF00211020FFF71F
:102310007CFF002505E001210020FFF776FF681C07
:10232000C5B2802DF7DB601CC4B2082CE4DB70BDA5
:1023300070B5002418E004F1B0000021FFF765FF3C
:1023400000210846FFF761FF00211020FFF75DFF25
:10235000002505E001210846FFF757FF681CC5B2BC
:10236000802DF7DB601CC4B2082CE4DB70BD2DE9C6
:10237000F04707460E469046994600250024A8F1EE
:102380002000C5B27F2F02DD0027B01CC6B2B9F114
:10239000100F24D131463846FFF77BFF002408E0B8
:1023A00004EB0511544A505C0121FFF72EFF601C1D
:1023B000C4B2082CF4DB701CC1B23846FFF769FFC9
:1023C000002409E004EB051108314B4A505C01215F
:1023D000FFF71BFF601CC4B2082CF3DB12E0314690
:1023E0003846FFF756FF00240AE005EB4501434A53
:1023F00002EB4101085D0121FFF707FF601CC4B239
:10240000062CF2DBBDE8F08710B504461CB90021AC
:10241000A620FFF7FAFE012C03D10021A720FFF729
:10242000F4FE10BD10B504463CB90021C820FFF7EA
:10243000ECFE0021A120FFF7E8FE012C07D10021CE
:10244000C020FFF7E2FE0021A020FFF7DEFE10BD56
:1024500070B50A46CE1701EB5676C6F3C703CE1702
:1024600001EB5676F610A1EBC606F4B20122A240AB
:10247000D5B2234A02EBC002D25C2A43204E06EBBF
:10248000C006F25470BD10B50246012000E0504372
:102490000B1EA1F10104E1B2F9D110BD2DE9FF5FDE
:1024A000074691461E460E9D4FF0000A00243FE06D
:1024B000301B401EC1B20A20FFF7E5FFB9FBF0F068
:1024C0000A21B0FBF1F201FB1208BAF1000F1ED194
:1024D000701EA0421BDDB8F1000F16D1AB4605EB14
:1024E000DB71491001FB0471C8B22B46202201990F
:1024F00008E00000000C01409C350008743300081F
:1025000084090020FFF733FF10E04FF0010AAB46CB
:1025100005EBDB71491001FB0471C8B208F1300111
:10252000CAB22B460199FFF722FF00BF601CC4B25C
:10253000B442BDDBBDE8FF9F2DE9F04104460F46E4
:102540001546984600260FE0AA5D434639462046C8
:10255000FFF70DFF04F10800C4B2782C02DD00245F
:10256000B81CC7B2701CC6B2A85D0028ECD1BDE88B
:10257000F0812DE9F04180460E4615460027314690
:102580004046FFF786FE00240AE0A14A02EB45110F
:10259000085D0121FFF739FE781CC7B2601CC4B288
:1025A000102CF2DB701CC1B24046FFF772FE002413
:1025B0000CE06900491C964A02EB0111085D0121FB
:1025C000FFF723FE781CC7B2601CC4B2102CF0DBEE
:1025D000BDE8F08170B50B46CE1701EB5676C6F319
:1025E000C702CE1701EB5676F610A1EBC606F4B281
:1025F0000123A340DDB2874B03EBC0039B5CDB43AD
:10260000844E06EBC006B354824B03EBC0039B5CC5
:102610002B43804E06EBC006B3547E4B03EBC00346
:102620009B5CDB437B4E06EBC006B35470BD2DE9CB
:10263000F05F06460F4690461C46DDF828A04FF096
:10264000000BE11704EB5171C910A4EBC10131B9C2
:102650002046E11704EB5171C1F3C70506E020469F
:10266000E11704EB5171C910491CCDB23D4615E08C
:1026700029463046FFF70DFEB1460BE059460BF1F7
:10268000010B1AF801000121FFF7BFFD09F101005C
:1026900000F0FF09C145F1DB681CC5B2A542E7DBCC
:1026A000BDE8F09F70B500241BE004F1B0000021EC
:1026B000FFF7ABFD00210846FFF7A7FD0021102022
:1026C000FFF7A3FD002508E0524901EBC501085DB5
:1026D0000121FFF79AFD681CC5B2802DF4DB601C58
:1026E000C4B2082CE1DB70BD08B501210820FEF75B
:1026F00093F94FF40070ADF8000003208DF802004C
:1027000010208DF8030069464348FDF7C9FE4FF4D9
:102710008070ADF8000003208DF8020010208DF8C5
:10272000030069463C48FDF7BBFE0021AE20FFF7E1
:102730006CFD00210846FFF768FD00211020FFF71F
:1027400064FD00214020FFF760FD00218120FFF79C
:102750005CFD0021CF20FFF758FD0021A120FFF7ED
:1027600054FD0021C820FFF750FD0021A620FFF7EF
:102770004CFD0021A820FFF748FD00213F20FFF776
:1027800044FD0021D320FFF740FD00210846FFF75C
:102790003CFD0021D520FFF738FD00218020FFF708
:1027A00034FD0021D920FFF730FD0021F120FFF793
:1027B0002CFD0021DA20FFF728FD00211220FFF771
:1027C00024FD0021DB20FFF720FD00214020FFF742
:1027D0001CFD00212020FFF718FD00210220FFF73B
:1027E00014FD00218D20FFF710FD00211420FFF7BC
:1027F0000CFD0021A420FFF708FD0021A620FFF713
:1028000004FD0021AF20FFF700FDFFF772FD08BDBA
:102810002800002084090020000C014008B5012197
:102820000420FEF7F9F84FF48060ADF800000320B3
:102830008DF8020010208DF803006946FE48FDF770
:102840002FFE4FF48061FC48FDF7D9FE4FF4805015
:10285000ADF8000003208DF8020010208DF8030071
:102860006946F548FDF71CFE4FF48051F248FDF72C
:10287000C6FE08BD08B501210420FEF7CDF84FF4CF
:102880000060ADF8000003208DF8020010208DF8E4
:1028900003006946E848FDF703FE4FF40061E6488F
:1028A000FDF7ADFE08BD08B501210420FEF7B4F820
:1028B0004FF40060ADF8000004208DF80300694675
:1028C000DD48FDF7EDFD08BD70B504460025FFF7B6
:1028D000D1FF4FF48051D848FDF791FE00BF1AE0B8
:1028E0004FF48051D448FDF78AFE04F0010028B16E
:1028F0004FF40061D048FDF780FE04E04FF4006122
:10290000CD48FDF77CFE4FF48051CB48FDF775FEB6
:102910006410681CC5B2082DE2DB70BD2DE9F041E2
:1029200004460D4626462F464FF48061C248FDF707
:1029300066FE4FF48051C048FDF761FE0120FFF7AD
:1029400088FB4FF48061BC48FDF757FE0220FFF77B
:1029500080FB3046FFF7B8FF3846FFF7B5FF4FF46E
:102960008061B548FDF74BFE4FF48051B248FDF74A
:1029700046FE0220FFF76DFBBDE8F0812DE9F04136
:1029800005462F46002600244FF48061AA48FDF733
:1029900036FE4FF48051A848FDF731FE0320FFF7C3
:1029A00058FB4FF48061A448FDF727FE0320FFF792
:1029B00050FB3846FFF788FFFFF775FF0220FFF74F
:1029C00048FB00BF1DE00220FFF743FB64104FF4FB
:1029D00080519948FDF711FE0420FFF73AFB4FF4B0
:1029E00080519548FDF70BFE0E20FFF732FB4FF4A8
:1029F00000619148FDF7E7FD08B144F08004701CC8
:102A0000C6B2082EDFDB0220FFF723FB4FF4806104
:102A10008948FDF7F4FD4FF400618748FDF7EFFDAD
:102A20002046BDE8F08110B500218E20FFF776FF2B
:102A3000824841798220FFF771FF80480179842024
:102A4000FFF76CFF7D48C1788620FFF767FF7B4862
:102A500081788820FFF762FF784881798A20FFF724
:102A60005DFF764841788C20FFF758FF80218E204B
:102A7000FFF754FF10BD10B58120FFF77FFF7049AD
:102A800008708320FFF77AFF6D4948708520FFF7B3
:102A900075FF6B4988708720FFF770FF6849C87021
:102AA0008920FFF76BFF664908718B20FFF766FFEF
:102AB000634948718D20FFF761FF6149887110BD3E
:102AC00010B5FFF7D8FF5E48007800F00F005C49B2
:102AD0000978091101EB810100EB41005949887126
:102AE0005748407800F00F0055494978C1F302116A
:102AF00001EB810100EB4100524948715048807858
:102B000000F00F004E498978091101EB810100EBBB
:102B100041004C4908714A48C07800F00F0048490C
:102B2000C978091101EB810100EB41004549C870EA
:102B30004348007900F00F0041490979091101EB80
:102B4000810100EB41003F4988703D484079C871E0
:102B50003B48807900F00F0039498979091101EB70
:102B6000810100EB410000F5FA603649088010BD94
:102B700008B50C2200215420FFF7FBFC0D22002198
:102B80006220FFF7F6FC2F48C0790D30C2B2002159
:102B90007020FFF7EEFC102000902A4802880423E2
:102BA00000210846FFF77AFC102327A200212020ED
:102BB000FFF7C2FC102000902248827802230021F7
:102BC0002A20FFF76BFC10231FA200213A20FFF7F9
:102BD000B3FC102000901B48C2780223002144203F
:102BE000FFF75CFC174880780A2805DA102317A243
:102BF00000212A20FFF7A0FC1248C0780A2805DA35
:102C0000102312A200214420FFF796FC1020009010
:102C10000C480279022303212220FFF73FFC1023F6
:102C20000BA203213620FFF787FC102000900548F7
:102C30004279022303210DE0000801407B090020B6
:102C4000740900206C0900202D00000030000000F5
:102C50003A0000004020FFF721FC1023AFF21002E1
:102C600003215420FFF768FC10200090FE48827971
:102C7000022303215E20FFF711FCFB4840790A285C
:102C800006DA1023AFF23C0203214020FFF754FC88
:102C9000F54880790A2806DA1023AFF250020321A2
:102CA0005E20FFF749FCF04800790A2806DA102375
:102CB000AFF2680203212220FFF73EFC2322062107
:102CC0000020FFF756FC242206211020FFF751FCBC
:102CD0001023AFF2840206211E20FFF72DFC1020E6
:102CE00002230090E148027806212420FFF7D6FB5A
:102CF000272206213620FFF73CFC2522062144200E
:102D0000FFF737FC262206215420FFF732FC102360
:102D1000AFF2C40206216220FFF70EFC102002234E
:102D20000090D348027806216820FFF7B7FB1023F4
:102D3000D0A206217820FFF7FFFB08BD08B51020C0
:102D40000090C9488279022303215E20FFF7A6FB89
:102D5000C54880790A2806DA1023AFF21012032141
:102D60005E20FFF7E9FBC0488079002874D110206D
:102D70000090BD480288042300210846FFF78EFB1F
:102D80001023AFF23C1200212020FFF7D5FB1020CA
:102D90000090B5488278022300212A20FFF77EFBAD
:102DA0001023AFF25C1200213A20FFF7C5FB102080
:102DB0000090AD48C278022300214420FFF76EFB4B
:102DC000A94880780A2806DA1023AFF28012002181
:102DD0002A20FFF7B1FBA448C0780A2806DA10239E
:102DE000AFF2981200214420FFF7A6FB10200090BC
:102DF0009D480279022303212220FFF74FFB102375
:102E0000AFF2B41203213620FFF796FB102000909A
:102E100095484279022303214020FFF73FFB10230E
:102E2000AFF2D41203215420FFF786FB8E4840797D
:102E30000A2806DA1023AFF2EC1203214020FFF734
:102E40007BFB894800790A2806DA1023AFF20422B6
:102E500003212220FFF770FB232206210020FFF729
:102E600088FB242206211020FFF783FB1023AFF2FA
:102E7000202206211E20FFF75FFB10200223009076
:102E80007A48027806212420FFF708FB2722062132
:102E90003620FFF76EFB252206214420FFF769FB51
:102EA000262206215420FFF764FB1023AFF2602294
:102EB00006216220FFF740FB1020022300906C489F
:102EC000027806216820FFF7E9FA102369A206219B
:102ED0007820FFF731FB08BD08B50C2200215420F3
:102EE000FFF747FB0D2200216220FFF742FB5E48FF
:102EF000C0790D30C2B200217020FFF73AFB1020DC
:102F0000009059488279022303215E20FFF7C6FA18
:102F1000554880790A2806DA1023AFF2D02203211F
:102F20005E20FFF709FB102000904F480288042321
:102F300000210846FFF7B2FA1023AFF2F422002175
:102F40002020FFF7F9FA10200090474882780223EA
:102F500000212A20FFF7A2FA1023AFF21432002139
:102F60003A20FFF7E9FA102000903F48C278022388
:102F700000214420FFF792FA3B4880780A2806DABD
:102F80001023AFF2383200212A20FFF7D5FA364855
:102F9000C0780A2806DA1023AFF25032002144200C
:102FA000FFF7CAFA102000902F480279022303216C
:102FB0002220FFF773FA1023AFF26C320321362080
:102FC000FFF7BAFA10200090274842790223032124
:102FD0004020FFF763FA1023AFF28C320321542014
:102FE000FFF7AAFA204840790A2806DA1023AFF240
:102FF000A43203214020FFF79FFA1B4800790A28DA
:1030000006DA1023AFF2BC3203212220FFF794FA34
:10301000232206210020FFF7ACFA242206211020EB
:10302000FFF7A7FA1023AFF2D83206211E20FFF7D0
:1030300083FA1020022300900C48027806212420F5
:10304000FFF72CFA272206213620FFF792FA2522D5
:1030500006214420FFF78DFA262206215420FFF78F
:1030600088FA102308E000006C0900205D090020A8
:103070005E09002025000000AFF22C4206216220EC
:10308000FFF75AFA10200223009007480278062121
:103090006820FFF703FA1023AFF2280206217820F8
:1030A000FFF74AFA08BD00005E09002008B50121BB
:1030B0000920FDF7B1FC0120ADF8000010208DF8CB
:1030C000030003208DF8020069465948FDF7E8F92E
:1030D00008BD08B501210920FDF79EFC0120ADF8CF
:1030E000000004208DF8030069465148FDF7D8F927
:1030F00008BD10B5FFF7DAFF00204E490860142024
:10310000FEF7CBFF01204C49C1F880011E20FEF7DD
:10311000A0FF10BD10B50024FFF7DBFF04E0601C2A
:10312000C4B20120FEF795FF42488038006808B11C
:10313000642CF4DB642C01DB012010BD002404E0CE
:10314000601CC4B20120FEF784FF3A488038006852
:1031500008B9642CF4DB642C01DB0120EDE70020CE
:10316000EBE710B5002404E0601CC4B20120FEF7B8
:1031700070FF30488038006808B1642CF4DB00240C
:1031800004E0601CC4B20120FEF763FF29488038C8
:10319000006808B9642CF4DB2820FEF75AFF2548A4
:1031A0008038006808B1012010BD0020FCE770B530
:1031B0000024002506E06006040EFFF7D2FF04435A
:1031C000681CC5B2082DF6DB204670BD7CB50546EF
:1031D0000E46FFF78EFFFFF79DFFF8B9002405E0CC
:1031E000FFF7E5FF0DF80400601CC4B2052CF7DB07
:1031F0009DF800009DF8011008449DF80210084455
:103200009DF8031008449DF80410884208D19DF8E9
:10321000000030709DF80200287001E001207CBDA4
:103220000020FCE710B5FFF764FFFFF773FF10BD48
:10323000000C0140808121420080214208B501211B
:103240000820FDF7E9FB4FF40050ADF800004820DE
:103250008DF8030069461248FDF722F94FF400404B
:10326000ADF8000048208DF8030069460C48FDF7D2
:1032700017F94FF48040ADF8000048208DF80300A6
:1032800069460748FDF70CF94FF48050ADF800008F
:1032900048208DF8030069460148FDF701F908BD93
:1032A000000C014008B501211020FDF7B5FB4FF4DB
:1032B0008040ADF8000003208DF8020010208DF84A
:1032C000030069460448FDF7EBF84FF480410248DB
:1032D000FDF795F908BD000000100140064C074DB0
:1032E00006E0E06840F0010394E8070098471034D6
:1032F000AC42F6D3FCF7FEFE8C3B0008AC3B00086A
:1033000070B58C1810F8015B15F0070301D110F8A7
:10331000013B2A1106D110F8012B03E010F8016BD4
:1033200001F8016B5B1EF9D12B0705D40023521E57
:103330000DD401F8013BFAE710F8013BCB1A921CBF
:1033400003E013F8015B01F8015B521EF9D5A142BD
:10335000D8D3002070BD02E008C8121F08C1002A9F
:10336000FAD170477047002001E001C1121F002A06
:10337000FBD170470000000000000000002F00009B
:1033800000000700070000147F147F1400242A7F28
:103390002A120062640813230036495522500000A7
:1033A0000503000000001C224100000041221C0017
:1033B0000014083E08140008083E0808000000A099
:1033C0006000000808080808000060600000002095
:1033D00010080402003E5149453E0000427F400073
:1033E000004261514946002141454B3100181412F9
:1033F0007F10002745454539003C4A4949300001C6
:103400007109050300364949493600064949291E14
:103410000000363600000000563600000008142276
:103420004100001414141414000041221408000276
:103430000151090600324959513E007C1211127C9B
:10344000007F49494936003E41414122007F4141C8
:10345000221C007F49494941007F09090901003EBA
:103460004149497A007F0808087F0000417F4100F8
:10347000002040413F01007F08142241007F40406E
:103480004040007F020C027F007F0408107F003E56
:103490004141413E007F09090906003E4151215E3C
:1034A000007F091929460046494949310001017F39
:1034B0000101003F4040403F001F2040201F003FCF
:1034C0004038403F00631408146300070870080781
:1034D00000615149454300007F41410000552A5594
:1034E0002A55000041417F0000040201020400400F
:1034F0004040404000000102040000205454547831
:10350000007F484444380038444444200038444450
:10351000487F00385454541800087E0901020018EE
:10352000A4A4A47C007F080404780000447D40002B
:10353000004080847D00007F102844000000417F0F
:103540004000007C04180478007C080404780038EB
:103550004444443800FC242424180018242418FC73
:10356000007C0804040800485454542000043F44DC
:103570004020003C4040207C001C2040201C003C9F
:103580004030403C004428102844001CA0A0A07CEF
:10359000004464544C441414141414140000000027
:1035A000000000000000000000000000000000F823
:1035B00000000000000000333000000000100C0686
:1035C000100C0600000000000000000040C0784021
:1035D000C0784000043F04043F040400007088FCED
:1035E00008300000001820FF211E0000F008F00045
:1035F000E018000000211C031E211E0000F00888B6
:10360000700000001E2123241927211010160E001F
:10361000000000000000000000000000000000E0CA
:1036200018040200000000071820400000020418DF
:10363000E00000000040201807000000404080F03B
:10364000804040000202010F01020200000000F071
:10365000000000000101011F010101000000000045
:103660000000000080B070000000000000000000BA
:103670000000000000010101010101010000000043
:1036800000000000003030000000000000000000DA
:1036900080601804006018060100000000E01008B7
:1036A0000810E000000F102020100F00001010F88C
:1036B000000000000020203F2020000000700808CB
:1036C000088870000030282422213000003008884B
:1036D000884830000018202020110E000000C02073
:1036E00010F8000000070424243F240000F8088894
:1036F000880808000019212020110E0000E0108821
:1037000088180000000F112020110E000038080852
:10371000C83808000000003F000000000070880862
:1037200008887000001C222121221C0000E01008E3
:103730000810E0000000312222110F00000000C03C
:10374000C0000000000000303000000000000080D9
:1037500000000000000080600000000000008040C9
:1037600020100800000102040810200040404040E2
:103770004040400004040404040404000008102035
:10378000408000000020100804020100007048087A
:103790000808F0000000003036010000C030C828E2
:1037A000E810E0000718272423140B000000C0389D
:1037B000E0000000203C23020227382008F8888817
:1037C00088700000203F202020110E00C030080823
:1037D00008083800071820202010080008F80808FA
:1037E0000810E000203F202020100F0008F88888F3
:1037F000E8081000203F20202320180008F88888BF
:10380000E8081000203F200003000000C030080836
:103810000838000007182020221E020008F80800BF
:103820000008F808203F210101213F20000808F886
:10383000080800000020203F2020000000000808A9
:10384000F8080800C08080807F00000008F888C069
:1038500028180800203F20012638200008F808001A
:1038600000000000203F20202020300008F8F80051
:10387000F8F80800203F003F003F200008F830C063
:103880000008F808203F200007183F00E010080853
:103890000810E0000F10202020100F0008F8080882
:1038A0000808F000203F210101010000E010080895
:1038B0000810E0000F18242438504F0008F88888BA
:1038C00088887000203F2000030C3020007088089A
:1038D000080838000038202121221C00180808F8A8
:1038E000080818000000203F2000000008F8080029
:1038F0000008F808001F202020201F0008788800FA
:1039000000C83808000007380E010000F80800F869
:103910000008F800033C0700073C03000818688013
:103920008068180820302C03032C30200838C80089
:10393000C83808000000203F2000000010080808D8
:10394000C83808002038262120201800000000FE7A
:10395000020202000000007F40404000000C30C026
:1039600000000000000000010638C0000002020252
:10397000FE000000004040407F0000000000040204
:10398000020204000000000000000000000000002F
:10399000000000008080808080808080000202041F
:1039A0000000000000000000000000000000808017
:1039B000808000000019242222223F2008F8008085
:1039C00080000000003F112020110E000000008048
:1039D00080800000000E11202020110000000080D7
:1039E0008088F800000E112020103F200000808009
:1039F00080800000001F222222221300008080F01D
:103A0000888888180020203F202000000000808047
:103A100080808000006B94949493600008F800808C
:103A200080800000203F210000203F2000809898E7
:103A3000000000000020203F202000000000008047
:103A40009898000000C08080807F000008F8000087
:103A500080808000203F24022D302000000808F8DC
:103A6000000000000020203F202000008080808097
:103A700080808000203F20003F20003F8080008029
:103A800080800000203F210000203F200000808037
:103A900080800000001F202020201F0080800080E8
:103AA0008000000080FFA12020110E000000008097
:103AB00080808000000E112020A0FF808080800088
:103AC0008080800020203F212000010000008080B5
:103AD000808080000033242424241900008080E0AA
:103AE000808000000000001F202000008080000077
:103AF00000808000001F202020103F208080800058
:103B00000080808000010E30080601008080008067
:103B1000008080800F300C030C300F00008080008C
:103B2000808080000020312E0E31200080808000B7
:103B30000080808080818E70180601000080808067
:103B4000808080000021302C222130000000000005
:103B5000807C020200000000003F404000000000A6
:103B6000FF00000000000000FF0000000002027CD7
:103B7000800000000040403F0000000000060101FE
:103B8000020204040000000000000000AC3B00083A
:103B900000000020840900000033000828400008CD
:103BA0008409002084080000663300081184A24ABA
:103BB00004680901020304060708090C69101502CC
:103BC000040608163E22E2223E2BFE220113E202E8
:103BD00017203F201F11112B7F4401134740180D60
:103BE000040404F484D4A5A6A4D484F40C21000E07
:103BF00014FE0202123A1613121A3242827EC336A1
:103C000036100B8060F80704645CC4644412F84208
:103C1000FF12FF172062221F1212244F807F1D40C7
:103C20004042CC052C4040FF0542403C7F201027FD
:103C30006116FC848484FC2A10011BFF10191A3FB2
:103C4000091A3FC82B06403F01211960180B445840
:103C5000C0407F40C05048466037808040201807F1
:103C60002A3F6F12781602E222223E200A809E929C
:103C700092F292929E801F4382423E4047FD467FD1
:103C8000444454E7700AF8888C8A89888888F81A2E
:103C9000FF1D290159A22A240137FC2222222322B6
:103CA0002A02013C42827F081302021C4044C42BBA
:103CB0003A40BD2310F0180E103C131014B84030D9
:103CC0000E01408040C8311EBE2A2A2AEA04523E14
:103CD0001C444249012A7F053341401B04FF5F1306
:103CE000FF041AFE6222FE280B88482F090919AF2B
:103CF00048300F6621CA800101138A0801311986F4
:103D0000A90119608A84012204CA2001217DFC04D2
:103D1000040404312D7F2824231A1A2190198011BC
:103D20001F02424242C27E051B42C2EF111A4001ED
:103D30002B7847061B407F0459506C21222C5036AB
:103D40004020100C035601020418604BFE8201193A
:103D5000DE513AFF3E544040FF1D2018C744012A5F
:103D6000FC0519A019861A07042B04FF051A041173
:103D70001940198A390129413E8040300F02012B38
:103D800042829F091F601AFCF812FC2A100124FFCE
:103D900010101A3F091A3F9F2C06408040381080AF
:103DA0004020908886808080838C10204080111372
:103DB00018071C40804025595F1D929292FE0439DD
:103DC000612480601F4E1E1212121E40112808F836
:103DD000012220222AF2A02A0221197638081F0186
:103DE000017F09110F211720102CE724243AF07EBF
:103DF0001AF078191C1321112008070202FF020291
:103E00000715404042CC1C40A09EC0459EA02020EB
:103E1000100D3F908840432C1028464180801C1094
:103E20000C44012B45C6062C44140C9F3E1E20401A
:103E3000407F101340402A80F929FE390639C053CB
:103E4000300F1989511C1011167A1D10101413FE11
:103E50001120108181414121110D030D112141419A
:103E6000818116FC848484FC2A100119A2197E1910
:103E70000919FB7B0106E012061AF0F06CF202024F
:103E8000E011161F1111111F3921251060028C2B12
:103E9000FE9201291F180A04047E01407E42427EE0
:103EA0000234427E402809FC242424FC25262408D0
:103EB0001204280E40308F80844C55252525554C02
:103EC00080E02940493F79401D4448507FE30C2061
:103ED000504844401808060909E6F80C049D5502AC
:103EE00002041E2E071F302040011A20CF10086048
:103EF000F0080808F8F06580403008170121110C1F
:103F000002014E1E212121333101FF812C38B838A6
:103F100001280CF8F87880F0FE7F7E70F0700124A4
:103F2000F0F0F027060E3E7C7860180CFCFCFC0ECE
:103F30000E0606FCF8F8180144F8F8F8192E5C3F54
:103F40003630016BFFFF0A323019304A0C01790A12
:103F500019090117200E03071F3CF8F0FFFF0F049B
:103F60000F0F0315FFFFFFC01C0407070B7937195C
:103F70001419703A8007490E3C60783E0E1DFEFF12
:103F8000FFC7014AF7074AC72129224A8601290AA1
:103F90005A06090116181380C0F0F83E1F0F071FBC
:103FA0003EB8D0E0F07C3F1F070B1EFCF0E0C08065
:103FB0001B180FE0FF7FFFC0C0848F8F8F87838324
:103FC000010D68088E8E8E0E8F878187311E8EDEE2
:103FD000FCF8F87F1BC080012B0101524EF0FF7FDF
:103FE0000F03011925790901173934214D030703FE
:103FF000030A391519333B0101111907F901291871
:104000003C0707073549364A01271C070701158970
:104010004819131904192B192901FFD12B14010177
:0840200031A30A0A0325192D42
:0400000508000101ED
:00000001FF
